S03B0000626F6F746C6F616465722D535353313032346B4D61747465724F746142726434313836763434305F6A6F686E32303234303732332E7333370A
S315080000000810002079010008F52C0008910800085E
S31508000010F52C0008F52C0008F52C0008F52C00082E
S31508000020F52C0008F52C0008FC380008F52C00080B
S31508000030F52C0008AC380008F52C0008F52C00084B
S31508000040F52C0008F52C0008F52C0008F52C0008FE
S31508000050F52C0008F52C0008F52C0008F52C0008EE
S31508000060F52C0008F52C0008F52C0008F52C0008DE
S31508000070F52C0008F52C0008F52C0008F52C0008CE
S31508000080F52C0008F52C0008F52C0008F52C0008BE
S31508000090F52C0008F52C0008F52C0008F52C0008AE
S315080000A0F52C0008F52C0008F52C0008F52C00089E
S315080000B0F52C0008F52C0008F52C0008F52C00088E
S315080000C0F52C0008F52C0008F52C0008F52C00087E
S315080000D0F52C0008F52C0008F52C0008F52C00086E
S315080000E0F52C0008F52C0008F52C0008F52C00085E
S315080000F0F52C0008F52C0008F52C0008F52C00084E
S31508000100F52C0008F52C0008F52C0008F52C00083D
S31508000110F52C0008F52C0008F52C0008F52C00082D
S31508000120F52C0008F52C0008F52C0008F52C00081D
S31508000130F52C0008F52C0008F52C0008F52C00080D
S31508000140F52C0008F52C0008F52C0008F52C0008FD
S31508000150F52C0008F52C0008F52C0008F52C0008ED
S31508000160F52C0008F52C0008F52C0008F52C0008DD
S31508000170013800D0FCE7704708B50D4B83F30A88B1
S315080001800C4B09A1D1E90001C3E9000100F090F880
S3150800019000F0DCFB00F07EF800F056F800F068F896
S315080001A000F082FBAFF30080A5EDF5FEA5EDF5FEA8
S315080001B008000020081000200348044B834202D0A0
S315080001C0034B03B118477047281000202810002059
S315080001D000000000064B0749C91A891048BF0131BB
S315080001E0491003D0044B0BB101481847704700BFAC
S315080001F028100020281000200000000010B5064C2A
S31508000200237843B9FFF7D8FF044B13B10448AFF37B
S3150800021000800123237010BD40100020000000005C
S31508000220843C000808B5054B1BB105490548AFF3E2
S315080002300080BDE80840FFF7CDBF00BF0000000002
S3150800024028100020843C0008064B0748DA1C121ABE
S31508000250C11E22F00302994288BF0022034903F017
S315080002603EBA00BF2810002010100020903C00085D
S31508000270064B0748DA1C121AC11E22F003029942DD
S3150800028088BF0022002103F022BA00BF44100020D4
S31508000290281000200348044A0449121A921002F052
S315080002A02ABD00BFA83C0008A83C0008441000204E
S315080002B0044B054A9A60D3F8882042F47002C3F8C2
S315080002C08820704700ED00E000000008014B186820
S315080002D0704700BF14100020084B1B6F03F007037C
S315080002E0022B04D0032B05D0012B05D0FEE7044BC7
S315080002F018687047034BFBE70348704700800040C7
S31508000300141000201C100020002D310108B5FFF73D
S31508000310E3FF054B1B6FC3F303330133B0FBF3F065
S31508000320024B186008BD00BF008000401010002076
S31508000330014B1868704700BF1C1000200048704722
S31508000340002D31014FF094439868C0F304400C28FF
S315080003500AD8DFE800F00B09090909090721190974
S315080003601B1D1F000F487047002070479B6803F04D
S315080003704073B3F1807F11D0B3F1007F10D00A4AE1
S31508000380002B08BF10467047084870470848704752
S315080003900848704708487047084870470848704733
S315080003A008487047405DC60000093D00C0EA2101C3
S315080003B080BA8C010048E801005A62020024F40061
S315080003C080841E0040420F00014B1868704700BF2A
S315080003D018100020C0F30C032DE9F04105460F461E
S315080003E016460BB900F086FB05F5005424F4FF54B5
S315080003F024F01F0405EB0608A04515D80D4802F0A1
S315080004004EFD304602F041FD0B4802F048FD2846F5
S3150800041002F03BFD00F0AEFB324639462846BDE801
S31508000420F041022300F074BB204600F063FB04F59C
S315080004300054E1E7403700084337000870B54FF02D
S315080004400065AD6A04462E691346864203D86D696F
S3150800045003449D4209D2074802F021FD204602F0D6
S3150800046014FDBDE8704000F085BBBDE87040FFF79D
S31508000470B1BF00BF4837000837B500F1006303F580
S31508000480004301931A4B0D469842144603D8019A25
S31508000490184B9A420AD3184802F001FD019802F057
S315080004A0F4FC03B0BDE8304000F064BB019A9B1A27
S315080004B0A3420AD2114802F0F2FC019802F0E5FCC8
S315080004C00F4802F0ECFC2046E9E748B94FF0006314
S315080004D09B6A0C4A5969914202D9186900F00AFBCD
S315080004E022462946019803B0BDE83040FFF772BF9F
S315080004F0FF7FFFF700E017084F3700087F3700082F
S31508000500A3370008008000087FB56FF0006200F18D
S3150800051078419142034619D26D460D4A02F11006FA
S315080005202C4610685168083203C4B2422546F7D1F2
S315080005305A1E04A90F3311F8014D12F8010F84420F
S3150800054004D19A42F7D1012004B070BD0020FBE720
S31508000550B137000838B504460D46FFF7D5FF68B130
S315080005606369012B04D0074800F0FAFA002038BD69
S31508000570204602F0DAFB0028F8D0A46901202C6096
S31508000580F5E700BFC2370008F0B50368044603F173
S315080005906043B3F5802F4168456B9FB004D9454841
S315080005A000F0DEFA002513E04FF000639B6A1B6932
S315080005B08B4202D8404A914201D94048F0E740337D
S315080005C0AB4201D8954206D93D4800F0C9FA012543
S315080005D028461FB0F0BD2846FFF796FF002867D0CB
S315080005E0284602F0A2FB0028DCD06B690BB9354817
S315080005F0EBE7022B0DD1AB69C4F1040119444FF0A6
S31508000600FF32204601F020F92F4B9842CAD12F48D5
S31508000610DBE72F4800F0A4FA40F20463656B029307
S315080006202846FFF771FF0028BCD0284602F07DFB5C
S315080006300028B7D04FF000677E6B3046FFF764FF9F
S315080006400028AFD0BB6A1B69503B9E42AAD82846F1
S3150800065003A9FFF77FFF05460028A3D0BB6A039EC0
S315080006601B69B34204D8B44202D8134B9E4201D93F
S31508000670184895E704A801F0ABF92146321B04A8EF
S3150800068002F0DFFC04A802F0DEFC01F0B1F9044632
S3150800069001F0CCF923460090314606F1200204A861
S315080006A001F016F90290029B002B91D00A4877E7D1
S315080006B00A488AE7CF37000800001808DA37000822
S315080006C0E7370008FB370008E320BBDE16380008CA
S315080006D02238000830380008383800084138000841
S315080006E070B54FF0FF3290B005460C4601F0ACF8F5
S315080006F01C4B984232D14FF480621B4B00219A66FC
S3150800070001A81C2202F0E3FF184B29466846043C60
S31508000710009302F059FF2146684602F055FF6846E5
S3150800072002F05BFF02F0F8FA0646B8B940F202207A
S3150800073000F08CF91C22314609A802F0C8FF0C4BC0
S31508000740294608A8089302F03FFF08A8214602F0A8
S315080007503BFF08A802F041FF02F0DEFA002010B0C5
S3150800076070BD00BFE320BBDE0090004001000543DA
S31508000770010006434FF4806230B50446154B91B02C
S315080007809A6600211C2201A802F0A1FF124B2146FD
S315080007906846009302F018FF684602F01EFF02F052
S315080007A0BBFA054698B940F2022000F04FF91C2220
S315080007B0294609A802F08BFF084B08A8214608938A
S315080007C002F002FF08A802F008FF02F0A5FA0020CE
S315080007D011B030BD00900040000002430000034302
S315080007E04FF4806210B50F4B8CB004469A66002110
S315080007F01C2205A802F06BFF0B4B019404930123FE
S3150800080002930A4B01A904A8039302F0D3FE04A895
S3150800081002F0E3FE02F080FAB0FA80F040090CB06C
S3150800082010BD00BF009000400000084304000020EF
S31508000830004870470080000837B50C460546E0B109
S31508000840D9B100230B60114B036002F0B0FD0130F3
S3150800085018BF2B6801A81CBF43F4C0432B604FF098
S31508000860FF33019302F0A6FD019B43B92B680343AE
S315080008702B60236843F40023236003B030BD012BAB
S3150800088002BF236803432360F3E700BF0C12000886
S3150800089008B5044800F064F9BDE808404FF4017053
S315080008A000F0FEB85538000813B5254800F058F989
S315080008B04FF04023D3F88420110606D44FF4006283
S315080008C01A67D3F88420D206FBD402F045FA00F062
S315080008D0AFF808B900F094F802F0F2FB044658B9EC
S315080008E000F0A6F808B100F09BF840F2012000F0ED
S315080008F0D7F84FF401701BE000F09AF808B900F039
S3150800090087F800F0AFF8012805D90E4800F028F955
S3150800091000F076F8FEE700F0B1F80B4B0193019B67
S31508000920002B0ADC40F205439C42E2D140F2032048
S3150800093000F0B6F8002002B010BD019B013BEDE7C0
S31508000940653800086F38000800350C0007B500F058
S3150800095017F901238DF806308DF807304FF040233C
S31508000960D3F894305A060FD500F0AEF8A0F202205C
S3150800097080B2072808D8C923C340DB0742BF002333
S315080009808DF806308DF80730194B5B68013308D1AE
S315080009904FF4027000F05AF800238DF806308DF8EF
S315080009A007309DF8073073B11148FFF7EDFD8DF854
S315080009B006009DF8063033B90E4800F0D1F84FF41A
S315080009C0027000F043F89DF8063073B10A4800F04B
S315080009D0C7F800F0CFF800F02BF808B100F020F8BF
S315080009E00348064B986002F0BBF903B05DF804FBB8
S315080009F00060000890380008A038000800ED00E004
S31508000A004CF23C32014B5A80704700BF0000002070
S31508000A104AF6C032014B5A80704700BF00000020DA
S31508000A204FF20F02014B5A80704700BF00000020AA
S31508000A304AF6C030044B5B8823F00F039BB21B1A9F
S31508000A4058425841704700BF00000020044A08B5C4
S31508000A501080FFF7EDFF10B94FF20F03538008BD62
S31508000A600000002008B5FFF7E3FF18B1024B5888CD
S31508000A7000F00F0008BD00BF0000002008B5FFF712
S31508000A80D7FF48B1054A538803F00F010F2914BF51
S31508000A90013323F00F03538008BD00BF0000002078
S31508000AA008B5FFF7D3FFBFF34F8F0549054BCA6853
S31508000AB002F4E0621343CB60BFF34F8F00BFFDE73C
S31508000AC000ED00E00400FA054FF20F01084B5A88C2
S31508000AD08A4201D1188870473AB91B8840F2022029
S31508000AE0012B18BF4FF4007070474FF40070704721
S31508000AF0000000204FF4803208B5044B9A6601F0D6
S31508000B00D5FEB0FA80F0400908BD00BF009000404D
S31508000B10072BF8B506460F4614461D4601D9002090
S31508000B20F8BD0121202001F013FD0121212001F04B
S31508000B300FFD8CB144EA06039B07F0D14FF48032CF
S31508000B40064B31469A66284623463A4601F0D6FEB3
S31508000B50B0FA80F04009E3E70120E1E700900040A1
S31508000B6008B502F09CF9BDE80840014802F097B9BB
S31508000B7068390008014802F092B900BF68390008D0
S31508000B8008B54FF08063344834494366344B5A6B92
S31508000B9022F470425A635A6B42F480425A63D3F87D
S31508000BA0442442F00102C3F844244FF40023436668
S31508000BB02C4BD3F8FC20D20139D4D1F8803023F05D
S31508000BC0030343F00203C1F880304FF4607001F06C
S31508000BD0D9FC254BB0FBF3F0224B0138D3F8F020B3
S31508000BE042F00102C3F8F020D3F8FC2042F08072EC
S31508000BF0C3F8FC201D4AA3F55D431A60022203F5DB
S31508000C007C331861C3F8F0204FF48072C3F80423CC
S31508000C104FF06043164AC3F8B02F164AC3F8802E21
S31508000C20D3F8002E42F00102C3F8002E08BDD3F80F
S31508000C30FC2022F08072C3F8FC20D1F8802022F034
S31508000C40030242F00202C1F88020D3F8FC2042F0E9
S31508000C508072C3F8FC20B8E700900040008000408E
S31508000C6000C0034000ED00E08E2D0D00FF1301408B
S31508000C7055CEACC50900010010B5044600F04CF984
S31508000C80074BB0FBF3F304FB03F0022806D9BDE8D3
S31508000C9010400323B0FBF3F0FFF76ABA10BD00BF9C
S31508000CA040420F004FF08062024B5A664FF4000232
S31508000CB09A6670470090004030B5254B87B001AA68
S31508000CC003F11005144618685968083303C4AB4283
S31508000CD02246F7D11B7823701E4BD3F8280100F063
S31508000CE00700012808D002282FD002F0CEF81A48AB
S31508000CF0FFF736FF194815E04FF40033184A5366D4
S31508000D00184B9969C9070FD5DA681748C2F30B0259
S31508000D10B0FBF2F0DB68C3F30B4358434FF4C02231
S31508000D20124B5A6607B030BD4FF480235366104BFA
S31508000D309B68C3F3044218326A4412F8140C0D4A2D
S31508000D40C3F301635043D840E8E70748EAE700BF22
S31508000D506A390008008000404439000800B4C40419
S31508000D600090004000C00140C017530200A0004098
S31508000D700000014040420F0010B5FFF793FF012124
S31508000D8000230422022001F027FD02220023114637
S31508000D90104601F021FD002304220321022001F060
S31508000DA01BFD04221D4C11460123022001F014FDEF
S31508000DB0204601F0E7FC1A4B1A4ADA64FFF77CFF73
S31508000DC00A2202FB00F318492046B3FBF1F3053368
S31508000DD0B3FBF2F3013B1B0643F02103236140F208
S31508000DE00143A36041F202030521636102F0A1FBFE
S31508000DF00E4B0F4AC3F8CC244FF00212C3F8C42492
S31508000E0002F58032C3F8C8241C22C3F8B42405238B
S31508000E10A363636D13F0280FFBD110BD00000A40D1
S31508000E2000100A40FF3F0D0300A8610000C0034000
S31508000E300200010008B5FFF735FFBDE808400021AC
S31508000E40014802F076BB00BF00000A4008B501461B
S31508000E50FFF728FFBDE80840014802F088BB00BF3D
S31508000E6000000A4038B505460D4CC0F30741204638
S31508000E70FFF718FF02F076FB2046C5F3072102F0BC
S31508000E8071FBE9B2204602F06DFB204602F056FBE4
S31508000E90204602F053FB2046BDE8384002F04EBB20
S31508000EA000000A4008B5FF210348FFF7FBFE02F0E1
S31508000EB05EFBC0B208BD00BF00000A4038B50B4D46
S31508000EC0FF212846FFF7EEFE02F04CFBFF212846DD
S31508000ED002F048FB284602F031FB0402284602F0DD
S31508000EE02DFBA4B2204380B238BD00BF00000A40E3
S31508000EF008B5FFF7D7FE1022014BC3F8A02008BD9E
S31508000F0000E0034008B5FFF7CDFE1022014BC3F8F9
S31508000F10A02008BD00D0034030B51C4B87B001AAFD
S31508000F2003F11005144618685968083303C4AB4220
S31508000F302246F7D11B782370154B1B6F03F0070366
S31508000F40032B1FD04FF48022124B5A66124A93681D
S31508000F50C3F30443102B17D818336B440F4913F8FF
S31508000F60143C4B430E498B4203D19268C2F301628B
S31508000F70D340074A106FC0F303300130B3FBF0F0DB
S31508000F8007B030BD074BF4E7074BF2E77B3900089B
S31508000F9000800040009000400000014040420F00E1
S31508000FA000093D0000F04902C0EA210130B50246B9
S31508000FB000230C25054905FB03F460180C599442D7
S31508000FC003D001330C2BF6D1002030BD8C39000834
S31508000FD0F0B50023082787B0CDE9013315463B460F
S31508000FE0009704AA044601F09AFF41F203039842C7
S31508000FF0064631D194F8433053B13A46E06C04A919
S3150800100002F01FF804AA3B461146A06C02F008F845
S31508001010059A049B6A6094F843202B6052B9104ADB
S31508001020934207D00F4A934204D00822E06C04A9E1
S3150800103002F007F86B680C4823650023636501F026
S315080010402EFF286801F021FF084801F028FF68688C
S3150800105001F01BFFFFF78EFD304607B0F0BD00BF5D
S31508001060F70A0AF7FC0404FC1C3A0008233A0008AD
S315080010702DE9F04799465B6804460F469046002BD3
S3150800108046D08B0706D02348FFF76AFD41F20200D7
S31508001090BDE8F0874FF000639B6A006E1B698118F4
S315080010A01D1DA9421BD31C33984218D2A8420246DA
S315080010B038BF2A46994294BFC2EB010AC2EB030A1B
S315080010C0101A3E18C5F168001044314652462044AD
S315080010D002F005FB5246FF21304602F0F8FA226E6E
S315080010E00D4B9A420BD80D4902EB0800884206D3ED
S315080010F09B1AFA58C4F880204FF0FF32FA50D9E903
S31508001100003542463946206EA847236E4344236677
S315080011100020BDE72B3A0008048000080880000874
S315080011202DE9F04100254FF0FF370446884616465C
S3150800113003F0200380F842301822FF21C0E9185531
S31508001140A0F8405080F84350A0F8445080F8465024
S31508001150C0F88870683002F0BAFA88222946C4E9CD
S315080011601286C4F88070C4F8847004F1900002F006
S31508001170AEFA074BC4F82071C4E9463584F8245101
S3150800118016B1304600F024FC0020BDE8F08100BF0F
S31508001190000101012DE9F04FA5B09946CDE91123CB
S315080011A0002304460E464FF001082E9D139313990B
S315080011B078E094F846300C2B70D8062B4BD908FAF1
S315080011C003F212F4286F40F0138212F4885F40F09D
S315080011D0BD810A2B66D1DFF8C4A3636D072B00F225
S315080011E02B814FF0080B382316AA2046CDE9018833
S315080011F0CDF800B011A901F092FE41F203030A905E
S315080012000A9A9A4200F042810A9B5BE0A3F10E0219
S31508001210052A00F29B82DFE812F00D030600F800AB
S315080012203A023A020B030027636D0F2B00F28D80FA
S31508001230102314AA009320464023CDE9018711A95B
S3150800124001F06DFE41F203030890089A9A4200F0F5
S31508001250CE80089B36E0013B052B27D8DFE813F044
S31508001260770071000600C801DF007E010127636D63
S31508001270072B00F2E180082314AA00932046402396
S31508001280CDE9017711A901F04AFE41F203030B905B
S315080012900B9A9A4200F024810B9B13E0A3F10D02EE
S315080012A0062AB3D9494584D3002068E014AA204603
S315080012B011A9FFF78DFE41F203020590059B9342A3
S315080012C008D0059B049341F20303049A9A423FF41B
S315080012D06EAF53E0159A1499226500226265AC4AEE
S315080012E0914240F00A81022284F84620EAE7082360
S315080012F014AA009320464023CDE9018711A901F0DD
S315080013000EFE41F203030690069A9A4201D0069B06
S31508001310D8E7149B03F07F43B3F1407F05D013232E
S3150800132084F8463041F20903CCE7159BD90709D55D
S3150800133094F84230974843F0010384F84230FFF7A7
S315080013400FFC0027636D072BD1D9012303E1204643
S3150800135014AA11A9FFF73CFE41F203030790079F61
S315080013609F420FD0079F41F203030497049A9A42BB
S315080013703FF41DAF049B0BB10023F370049825B00E
S31508001380BDE8F08F1498FFF711FE28B9132341F230
S31508001390080784F84630E6E7437994F824219A4208
S315080013A005D9132341F20E0784F84630DBE70268B5
S315080013B079498A4205D00289D20748BF013384F8A1
S315080013C0243194F84230D9070DD5028994F8433070
S315080013D0920706D53BB1132341F2010784F846303C
S315080013E0C1E7002BF7D0037984F84630BBE7D4F879
S315080013F048A000F039FB80230221CDE9000315AA95
S315080014000123504600F038FA0EE7226D0123A26543
S31508001410002284F84330E26584F84630C7E60021A6
S315080014203C2215A81491012702F051F9D4E9143287
S31508001430934204D884F8467041F2030342E70093C6
S3150800144014AA40232046CDE9017711A901F067FDCA
S3150800145041F203030990099A9A4201D0099B31E7A0
S315080014600DF1500C06F108030DF1680E624603CA29
S31508001470724518605960944603F10803F6D110685E
S315080014801860337843F001033370CFE7337843F0BD
S3150800149004033370179BB36273785F071CD500206B
S315080014A0236DCDF850A0C4F8843094F845306066B2
S315080014B043F0020384F84530EF686FB104222B68C5
S315080014C014A9B847606E2B685A46EF6816A9083003
S315080014D0B847636E103363660B2384F846307CE6A0
S315080014E0337843F002033370149B7360236D083B13
S315080014F07362159BB3F1006F05D0132384F8463049
S3150800150041F20103DEE6042384F8463094F84530B8
S3150800151043F0010384F8453000236366A7E60423F5
S3150800152014AA009320464023CDE9017711A901F0BA
S31508001530F6FC41F203030C900C9A9A4201D00C9BDC
S31508001540C0E6226D149B042A01D923660127636D20
S31508001550032BE4D9092384F846306DE70023636634
S31508001560072359E79F4253D89F4228BF1F46402367
S3150800157014AA2046CDE90188009711A901F0CFFCED
S3150800158041F203030D900D9A9A4212D00D9B99E6EB
S31508001590EB17A603443A0008F90707F9EB17A65E06
S315080015A0402F28BF40279F4228BF1F4627F0030722
S315080015B0DDE794F846B0BBF1070F2FD0042FC7F12B
S315080015C0040A88BF4FF0000A14AB5246FF21D81907
S315080015D002F07DF8BBF1090FBA442DD12B465246CD
S315080015E0204614A9FFF744FD0D900D9B002BCDD185
S315080015F0D4E914739F427FF6A8AEFF1ADDE91232CA
S315080016009B1A94F84020032F1344ABD9032BC7D851
S31508001610204611A901F062FC002353E6D5F808A07C
S31508001620BAF1000FCAD02B683A46606E14A9D047A3
S31508001630636E3B446366DBE7BBF1040F1DD1737829
S315080016409807D5D5EB68002BD2D0626E042A0BD842
S315080016500AEB0203062B07D915AB9B1A1A68C4F8BE
S3150800166084204FF0FF321A60EF682B685246606E8E
S3150800167014A9B847636E5344DCE7BBF10B0FB7D127
S3150800168073785907B4D5EF68002FEED1B0E74FF05D
S3150800169000618A6A496B1269503A91423FF630AF47
S315080016A0112B0FD194F81831002B7FF44EAE41F26E
S315080016B006030E930E9A9A4202D1132384F84630F3
S315080016C00E9BFFE594F84430002B7FF43EAECDE93F
S315080016D00133402314AA0093204611A901F01FFCE8
S315080016E041F203030E900E9A9A42E9D1E06C01F09A
S315080016F0AAFC94F81831BBB104F1B4030093E06C6A
S3150800170004F194031CAA14A900F0E2F80E900E9BAB
S31508001710BBB14A48FFF724FA0023F370132384F871
S31508001720463041F20603CDE5D4F84CA000F060F946
S31508001730074600F07BF93B4600901CAA504614A9C0
S31508001740E2E70123F37084F84430FEE500234FF006
S315080017500408CDE9013314AA40232046CDF80080B9
S3150800176011A901F0DCFB41F203030F900F9A9A428C
S3150800177002D00F9B049301E6D4F88820304B9A4296
S3150800178005D0132384F8463041F20503F2E7012316
S31508001790F37094F84530DA0707D5EF682FB142465B
S315080017A040462B6804F18401B84794F845309B07F6
S315080017B007D5EF682FB104222B68104604F184017F
S315080017C0B847236E6BB36F685FB34FF0FF3304F10E
S315080017D080080422414610A8109301F068FF20B142
S315080017E0042241462B681748B84704F168090422C1
S315080017F0494610A801F05BFF98B14FF000639B6A59
S315080018001422D3F8108004F16C0108F10800D5E918
S315080018100037B847D5E900370422494608EB0200E5
S31508001820B8470123B3700E2384F846300023A1E796
S315080018300023F37041F20700A1E500BF483A00080B
S31508001840E320BBDE0480000830B50824094B0025D8
S315080018505C66012403F5FE235C6001449D601A6101
S31508001860DC60884201D1586A30BD10F8012B1A6233
S31508001870F7E700BF009000402DE9F04116464FF407
S3150800188080621D46114B00F1200804469A664046C0
S315080018900F4601F0EDFEDDE90612404601F0ECFECA
S315080018A0002384F8587063643368C4F85930736841
S315080018B0C4F85D30B368C4F861302B0C6DBA84F88F
S315080018C06530A4F86650BDE8F08100BF009000407E
S315080018D02DE9F04315464FF480621C46364B99B005
S315080018E0DDF880900E4607469A66002861D00029E2
S315080018F05FD0002D5DD0002C58D0304B304AB9F15E
S31508001900000F14BF984690461C22002111A801F02A
S31508001910DEFE2C4B414610A8109301F055FE2021FF
S3150800192010A801F051FE0122274B0194029203935D
S31508001930CDF810900592069354B1B9F1000F07D06F
S3150800194001A910A801F02CFE04A910A801F028FE90
S31508001950079701271C4C07A910A80897099401F0B6
S315080019601FFE0AA910A80A960B970C940D950E97B8
S315080019700F9401F015FE0DA910A801F011FE10A88C
S3150800198001F02BFE114B00934FF098435A6CD2028C
S31508001990FCD55B6D40F2046003F470230093009B52
S315080019A0002B08BF002019B0BDE8F083DFF81080CF
S315080019B0AAE740F20160F6E7009000401F24008085
S315080019C01F24FC84000001062000002078563412EB
S315080019D04FF4806210B50446044B9A6601F036FB54
S315080019E02046BDE81040002101F034BB00900040BD
S315080019F04FF4806200B50B4B99B09A6600212022FD
S31508001A00684601F064FE40230021684608AA01F0F2
S31508001A1015F820F010000128034818BF002019B057
S31508001A205DF804FB009000404CE317084FF4806211
S31508001A3000B50B4B99B09A6600212022684601F042
S31508001A4046FE40230021684608AA00F0F7FF20F06A
S31508001A5010000128034818BF002019B05DF804FBE0
S31508001A60009000406CE317080048704786E21708A4
S31508001A702DE9F3471446DDE90A920D461F4600286C
S31508001A804DD14CB313683F2B2AD8516851B3254919
S31508001A90002F14BFB846884603F03F061B1913608B
S31508001AA022BF536801335360FEB93F2C0ED9A309F0
S31508001AB02A46009341463B46002000F083F824F06E
S31508001AC03F031D4404F03F0434B10026224629464C
S31508001AD009EB060001F003FE002002B0BDE8F0871E
S31508001AE0B846D9E7DFF83C80D6E7C6F1400A544540
S31508001AF0ECD32946524609EB060001F0F0FD012316
S31508001B00264400934A463B4641460020A6F1400437
S31508001B1000F058F83F2C5544D6D9B846C7E70248CE
S31508001B20DBE700BF983A000880AFFFFF2DE9F041D8
S31508001B301746146886B01E46E3008DF80F30630911
S31508001B408DF80E30630B8DF80D30630D8DF80C3063
S31508001B5053680546DA0002EB54728DF80B2004F040
S31508001B603F045A09372C8DF80A204FEA53324FEAB8
S31508001B7053538DF80920884694BFC4F13802C4F13E
S31508001B807802CDE900178DF808300D490346002084
S31508001B90FFF76EFF08222B460020CDE900870DEBE4
S31508001BA00201FFF765FF284605F1200350F8042BCC
S31508001BB0984246F8042BF9D1002006B0BDE8F0811A
S31508001BC0583A0008F0B517464FF480621D46254B73
S31508001BD093B00E469A660446202200210AA801F010
S31508001BE076FD01204FF00052019702900392049669
S31508001BF005900692079508900992002C2FD1189CFB
S31508001C00194BA40121460AA80A9301F0DDFC039B9F
S31508001C1004A91C430394069B0AA843F020030693D1
S31508001C20099B43F02003099301F0BAFC01A90AA80D
S31508001C3001F0B6FC07A90AA801F0BCFC0AA801F045
S31508001C40CCFC4FF098435A6CD202FCD55B6D13F46A
S31508001C50702F14BF6FF06F00002013B0F0BD6FF047
S31508001C607100FAE7009000400004010310B53A48F5
S31508001C70ADF50E7D01F013F9002001F006F9FEF727
S31508001C8079FF4FF40D72002001A901F064FA40F2C1
S31508001C900124002101A801F035FAA042F9D040F24A
S31508001CA00323984207D02D48FEF75AFF40F2054015
S31508001CB00DF50E7D10BD9DF80430580710D50B980C
S31508001CC001F03AF860B18A9800F058F928B124482A
S31508001CD0FEF750FD20B92348E6E72348FEF740FF04
S31508001CE09DF80430990710D5204801F0D8F84FF030
S31508001CF000639B6A986801F0C8F81D4801F0CFF8A0
S31508001D00029801F0C2F8FEF735FF9DF804309A07ED
S31508001D1014D54FF00062926A0299926891420DD9E1
S31508001D208A9800F049F938B10A990D48FEF7D8FCA7
S31508001D300028BBD10F48B7E70F48B5E7DB0701D442
S31508001D400E48B1E704998A9800F05AF908B90C4880
S31508001D50AAE70020ACE700BFB83A0008BF3A000877
S31508001D6000800008CB3A0008E23A0008F83A000872
S31508001D70003B0008053B00081D3B00082E3B0008F9
S31508001D803D3B000831B10A4B5A68824205D8002308
S31508001D90C1E9003340F201407047013053F8302062
S31508001DA003EBC0035B6800200A604B60704700BF06
S31508001DB0F43B000870B40C4611461A460D4B5D6894
S31508001DC0854210D9013003EBC0056D68A618AE42EE
S31508001DD00DD8A5420BD3954209D353F830002044B9
S31508001DE070BC01F06DBA40F2014070BC704740F219
S31508001DF00240FAE7F43B000870B50D46002186B0AC
S31508001E000DF1070302931C4B04461646116028463B
S31508001E101C22CDE903338DF80710059301F057FC12
S31508001E209DF8072032B9D4F830321BB9D4E98A3183
S31508001E30994219D32378990744BF61683160DB0753
S31508001E4009D504F1080304F1240153F8040B8B4265
S31508001E5045F8040BF9D162B9237840F20640002B05
S31508001E6018BF002006B070BD204602A901F02DF962
S31508001E70D6E70020F6E700BFC530000870B40C4668
S31508001E8011461A460D4B5D68854210D9013003EBA1
S31508001E90C0056D68A618AE420DD8A5420BD395426B
S31508001EA009D353F83000204470BC01F02BBA40F235
S31508001EB0014070BC704740F20240FAE7F43B000864
S31508001EC0074B5A68824207D9013003EBC0025168B2
S31508001ED053F8300001F070BA40F20140704700BF75
S31508001EE0F43B000870B5054688B0C0B14FF44032DF
S31508001EF000236C46C0E900230A4B05F114061A783C
S31508001F005B680272C360684600F098F80FCC0FC68B
S31508001F1094E80F0086E80F0005F114032B6108B05A
S31508001F2070BD00BFF43B000838B500F5DE72044604
S31508001F300D46202300F5AA712C30FFF7F1F8D4F8E6
S31508001F4030321BB9D4E98A329A4203D3A37833B123
S31508001F50E07838BD2946204601F0B7F8EFE706488D
S31508001F6000F09DFFD4F8300200F08FFFFEF702FE66
S31508001F70A0780028EDD0EBE74E3B000800B5ADF59C
S31508001F80137D4FF40D7205A901F0E5F878B904231D
S31508001F908DF81530074BCDE90100039001A905A876
S31508001FA00493FFF7C1FF0DF5137D5DF804FB0020D0
S31508001FB0F9E700BF790400084FF0006300B59B6A93
S31508001FC0ADF5137D9B688B4204D300200DF5137D78
S31508001FD05DF804FB4FF40D7205A901F0BCF8002862
S31508001FE0F3D102238DF81530044BCDE90100039097
S31508001FF001A905A80493FFF797FFE7E77904000806
S3150800200000B5ADF5137D4FF40D7205A901F0A3F8DF
S3150800201078B901238DF81530074B0190CDE90230C8
S31508002020049001A905A8FFF77FFF0DF5137D5DF85C
S3150800203004FB0020F9E700BF3D04000870B588B02E
S31508002040064601F012F920220021684601F03FFBFE
S3150800205001F095F80E2820D00CD807280FD00A28AA
S3150800206018D035466C460FCC0FC594E80F0085E8A6
S315080020700F000CE01728F4D13446094D01E0344628
S31508002080084D0FCD0FC495E80F0084E80F003046C1
S3150800209008B070BD3446044DF3E73446034DF0E707
S315080020A0043C0008643C0008443C0008243C000842
S315080020B010B5044601F0D9F854B901F060F80138B2
S315080020C0C0B2162896BF064B002053F8200010BD54
S315080020D020780028F3D101F052F82070EFE700BF0E
S315080020E0983B000838B5104B0546D3F880300C46A7
S315080020F003F00303022B0BD0032B0DD0012B0FD1BA
S31508002100FEF7EAF80E2305B1286004B1236038BD4E
S31508002110FEF718F90723F6E7FEF7D8F80623F2E7DD
S3150800212000231846EFE700BF0080004038B5184B7B
S315080021300546D3F820010C4600F00700062823D8E8
S31508002140DFE800F0040A0E16121A1E00012305B174
S31508002150286004B1236038BDFEF7B8F80523F6E712
S31508002160FEF7E6F80323F2E7FEF7ECF80723EEE7B7
S31508002170FEF7E4F80223EAE7FEF7A8F80623E6E7FF
S31508002180FEF7D6F80423E2E700231846DFE700BF88
S315080021900080004038B5174B0546D3F828310C4661
S315080021A003F00703013B052B20D8DFE803F00313F0
S315080021B01B0F0B17FEF78AF8052305B1286004B133
S315080021C0236038BDFEF782F80623F6E7FEF7BAF86D
S315080021D00723F2E7FEF7ACF80323EEE7FEF7A8F8C5
S315080021E00423EAE7FEF7AAF80223E6E700231846DF
S315080021F0E3E700BF0080004073B50D460021114B90
S315080022000191D3F88041064604F00304022C13D04A
S31508002210032C0CD0012C13D101A8FFF787FF10243B
S315080022200EB1019B336005B12C6002B070BDFEF79C
S3150800223089F807240190F3E7FEF780F80190EFE7A5
S315080022400C46EDE700800040002337B50193164B96
S315080022500546D3F820320C4603F00703042B21D891
S31508002260DFE803F0030B11161B0001230DB1019AD9
S315080022702A6004B1236003B030BD002101A8FFF72E
S3150800228089FF1223F2E7FEF75DF807230190EDE7D1
S3150800229000F03CFD0A230190E8E7FEF795F80923CC
S315080022A00190E3E70023E1E70080004038B5104BD2
S315080022B00546D3F840310C4603F00303022B0BD036
S315080022C0032B0DD0012B0FD100F020FD0A2305B1F9
S315080022D0286004B1236038BDFEF776F80923F6E7CF
S315080022E000F017FD0C23F2E701230020EFE700BFFB
S315080022F000800040002337B50193164B0546D3F8F6
S3150800230060320C4603F00703013B032B1FD8DFE8B6
S3150800231003F0020E1914002101A8FFF707FF102386
S315080023200DB1019A2A6004B1236003B030BD0021C3
S3150800233001A8FFF7BBFF1123F2E7FEF703F807230F
S315080023400190EDE7FDF7FAFF02230190E8E7002385
S31508002350E6E700BF00800040002337B50193164B1F
S315080023600546D3F894320C4603F00703013B032BCA
S315080023701FD8DFE803F0020E1914002101A8FFF7A1
S31508002380D5FE10230DB1019A2A6004B1236003B06B
S3150800239030BD002101A8FFF789FF1123F2E7FDF7F9
S315080023A0D1FF07230190EDE7FDF7C8FF022301904F
S315080023B0E8E70023E6E700BF0080004038B5144B85
S315080023C00546D3F800020C4600F0070004281BD87F
S315080023D0DFE800F003090D111500012305B1286097
S315080023E004B1236038BD00F091FC0A23F6E7FDF737
S315080023F0EBFF0923F2E700F08CFC0C23EEE7FDF770
S3150800240085FF0F23800AE9E700231846E6E700BFA1
S315080024100080004038B5144B0546D3F808020C4630
S3150800242000F0070004281BD8DFE800F003090D11A7
S315080024301500012305B1286004B1236038BD00F0FA
S3150800244065FC0A23F6E7FDF7BFFF0923F2E700F06C
S3150800245060FC0C23EEE7FDF759FF0F23800AE9E736
S3150800246000231846E6E700BF0080004038B5104B49
S315080024700546D3F840320C4603F00303022B0BD073
S31508002480032B0DD0012B0FD100F040FC0A2305B118
S31508002490286004B1236038BDFDF796FF0923F6E7E7
S315080024A000F037FC0C23F2E701230020EFE700BF1A
S315080024B00080004038B5104B0546D3F860310C460D
S315080024C003F00303022B0BD0032B0DD0012B0FD1E6
S315080024D000F01CFC0A2305B1286004B1236038BD4E
S315080024E0FDF772FF0923F6E700F013FC0C23F2E769
S315080024F001230020EFE700BF00800040B0F5207FF1
S315080025001FD009D8B0F5007F15D003D868B1B0F54B
S31508002510C07F0AD000200CE0B0F5607FFAD10B4BE3
S31508002520D3F88000C0F3011003E0084B186FC0F31E
S31508002530033001307047054BD3F89000C0F30460B0
S31508002540F7E7024B186FC0F38020F2E700800040DF
S31508002550430905D0012B0CD0022B084B18BF0023CA
S3150800256000F01F0039B103F58053012282401A603A
S315080025707047034BF4E703F50053F6E7688000401D
S31508002580648000401FB5002180280446CDE900116B
S3150800259000F0A58035D85E2846D85E2844D8DFE8FE
S315080025A000F0A24343434343434343434343434324
S315080025B043434343434343434343434343434343DD
S315080025C04343A2AAA2AABABABABABAAAC44DDA7137
S315080025D04DAAAAAA4343434343434343AAAAAA7913
S315080025E0E4AA43434343434343434343434343BA2E
S315080025F0A2A2A2DF4D4DE9885EBF434343434399F8
S31508002600A200B0F5B06F00F090802DD8B0F5207F0D
S3150800261071D00CD8B0F5C07F65D0B0F5007F65D015
S31508002620B0F5807F00F08680009804B010BDB0F544
S31508002630607F6BD00DD8B0F5407FF5D1FDF766FE0B
S3150800264002464FF42070FFF759FFB2FBF0F252082A
S315080026505AE0B0F5806F5ED0B0F5A06FE4D10021E6
S315080026606846FFF7F1FDDFE7B0F5106F78D016D8AA
S31508002670B0F5E06F79D00AD8B0F5C06F6BD0B0F579
S31508002680D06FD1D100216846FFF798FECCE7B0F5A8
S31508002690F06FC9D100216846FFF70CFFC4E7B0F513
S315080026A0406F3DD013D8B0F5206F63D0B0F5286FD2
S315080026B0BAD10021324B0391D3F8703203F00303E9
S315080026C0012B02D103A8FFF7F1FD039B3CE0B0F50F
S315080026D0486FA9D100216846FFF73EFEA4E7FDF73B
S315080026E0FBFD0090A0E7FDF711FEFAE7FDF7F4FD04
S315080026F00246204604E0FDF709FE02464FF4207024
S31508002700FFF7FCFEB2FBF0F200928DE701A8FFF797
S31508002710E9FC019AEDE700216846FFF707FD83E724
S3150800272000216846FFF736FD7EE700216846FFF779
S3150800273063FD79E74FF0E02302911B695B0705D536
S31508002740FDF7E4FD0290029B00936DE703A902A83A
S31508002750FFF7ACFDF7E700216846FFF7A7FD63E73B
S3150800276000216846FFF756FE5EE700216846FFF738
S315080027707DFE59E700216846FFF7BCFD54E700BF18
S315080027800080004010B500F09DFE042300F580513E
S3150800279000F500520B6113610B6113610B61136144
S315080027A00B611361202341F2020103610023C36018
S315080027B0836041614FF4A0218361836541620549C5
S315080027C0C36103628362C36243630365D1640363BF
S315080027D010BD00BFFF3F0D032DE9F04105460F462A
S315080027E01E4690464AB101233022194C8B4002FB03
S315080027F0004436B304F5825423600F21072F05EBF6
S31508002800450388BFA7F108044FEA0313114895BF8B
S31508002810BC00A40004330C3308FA04F2A14018449F
S3150800282000F0AFFEB8F1000F09D101233021084AA4
S31508002830BB4001FB05223EB102F582521360BDE89A
S31508002840F08104F50154D7E702F50152F6E700BF17
S3150800285000C0034030C00340F0B5114A114C124E77
S3150800286000F00105E3695F0713D40DB9334213D1AC
S3150800287003EA00078F4207D10B4A1A40002A0CBF09
S3150800288000206FF00100F0BD013AEBD16FF00200B5
S31508002890F9E74FF0FF30F6E76FF00100F3E700BF06
S315080028A08096980000000340020001004FF4803231
S315080028B038B50E4B0E4C9A66E56941F671331540EC
S315080028C00122E3630B4B0021DA60022360612120B9
S315080028D02361FFF7C1FF10B92120FFF7BDFF0122D1
S315080028E0054BDA600DB10023E36338BD0090004064
S315080028F00000034000100340002003402DE9F04F7C
S3150800290001274FF4302530268400DFF8C0C004F1D3
S31508002910402404F58024CCF80470656000244FF444
S315080029208035DFF8ACE0DFF8AC9006FB00E6F4652E
S3150800293034663467234CDFF8A0A0A56641F67135E6
S3150800294004F51C34D4F81C80E563E56807FA00F042
S315080029503D43E5604BB9E26818F4803F22F0010276
S31508002960E26029D10020BDE8F08F01F5005505EA9F
S3150800297009056D1A9D4228BF1D466161D4F81CB031
S31508002980AF081BF0040F19D1013F3F0147F060570C
S315080029907766B266C6F86CA0CCF82400DEF8347008
S315080029A03842FBD0084F294478630427CCF828001E
S315080029B02A4427615B1BCDE7E363D3E74FF0FF307B
S315080029C0D1E700BF009000400020044000100440FA
S315080029D00000044000E0FFFF180003404FF4806247
S315080029E0014B00209A667047009000404FF48062C1
S315080029F0014B00209A66704700A0004008B5B0B1A8
S31508002A004FF480620B4B9A6600F0E7FD4FF098434F
S31508002A105A6CD202FCD54FF48062586D064B10F4FE
S31508002A2070209A6604D0BDE8084000F0F3BD212066
S31508002A3008BD00BF0090004000A000401FB5044636
S31508002A4060B35AB3402B29D1930727D1042925D837
S31508002A50DFE801F0031A24221E004FF480731049A0
S31508002A600B4323600023C4E90133E3610123019288
S31508002A7002930C4B204601A9039300F09BFD2046C8
S31508002A80FFF7BCFF04B010BD4FF400730449E7E735
S31508002A9005494FF48063E3E70149FAE72120F1E7A6
S31508002AA0010008FF40000020000008FF2DE9F04162
S31508002AB0012905460E4690461F4692B04AD8046834
S31508002AC024F04003802B02D0B4F5807F45D11C2228
S31508002AD000210BA800F0FBFD234A244B0121012EFF
S31508002AE008BF13460A932B1D0193E408204B44F0B4
S31508002AF0005402910AA80394CDF810800591069314
S31508002B000797089101A9099300F04AFD04A90AA8A4
S31508002B1000F046FD07A90AA800F04CFD29680AA896
S31508002B20C90800F051FD10210AA800F04DFDFFF775
S31508002B3055FFA8B90AA800F050FD4FF098435A6C03
S31508002B40D202FCD55C6DFFF751FF04F4702012B079
S31508002B50BDE8F0816FF02000F9E76FF07100F6E745
S31508002B604FF0FF30F3E700BF000100040001010445
S31508002B70100000202DE9F04F07468946984616466C
S31508002B8099B082B115683B6823F04002802A03D0C9
S31508002B90B3F5807F40F0A68000244C4505D306B1E6
S31508002BA0356000207BE01546EDE75DB1239B229A50
S31508002BB01B5D525D01355340249A05F00F051355E8
S31508002BC00134EAE7A9EB040ABAF10F0F0BD8239BE5
S31508002BD003EB040A249B1C44239B03EB090BDA45ED
S31508002BE060D14C46D9E71C22294611A800F06FFD92
S31508002BF03E4B3A6810933B1D01930123D20842F0DD
S31508002C000052029303923A4ACDF810800593069231
S31508002C10CDF81C8008930992239A249922442AF015
S31508002C200F0A0A9221444AF000520B9310A80C92FC
S31508002C300D9101A90E930F9200F0B2FC04A910A8F9
S31508002C4000F0AEFC0AA910A800F0AAFC0DA910A86D
S31508002C5000F0B0FC07A910A800F0ACFC396810A871
S31508002C60C90800F0B1FC514610A800F0ADFCFFF70A
S31508002C70B5FE90B910A800F0B0FC4FF098435A6C16
S31508002C80D202FCD5586D544400F4702BFFF7AEFE03
S31508002C90BBF1000F9BD0584601E04FF0FF3019B04A
S31508002CA0BDE8F08F55B1229A1AF8013B525D0135FD
S31508002CB0534004F8013B05F00F0590E74246012111
S31508002CC03846229BFFF7F2FE0028E8D108F11002E9
S31508002CD012F8013D0133DBB21370002BE3D19045A6
S31508002CE0F6D1E0E76FF01F00D9E700BF0303000441
S31508002CF010000020FEE710B53AB1002350F8234033
S31508002D0041F8234001339A42F8D110BD4FF40040F0
S31508002D1070474FF47A7070474FF098435A6CD20256
S31508002D20FCD5586D00F470207047036913F0FE0F48
S31508002D300CBF0120002070474FF0FF3313B504463F
S31508002D4001A80193FDF74CFD20B1019BA3422CBFBE
S31508002D500020012002B010BD00F04CBA00F097BB6D
S31508002D6003461846016881F3088881F30988406894
S31508002D708746FEE7B1F50D7F10B504460FD34FF42D
S31508002D800D72002100F0A3FC04F5DE7204F5AA71A9
S31508002D9004F12C000023BDE81040FEF7C1B940F24B
S31508002DA0052010BD13B50446009101462C30FEF7E8
S31508002DB0F1F9C4F8300218B141F20703984204D178
S31508002DC0A37823B1E07800F2022002B010BD40F2E9
S31508002DD00120FAE72DE9F04387B00DF1080904460A
S31508002DE00E4617460021102248461D46DDF8388053
S31508002DF000F06DFC00211C22C8F80010284600F0DF
S31508002E0066FC32463B462146CDF8009004F12C007C
S31508002E10FEF7C0F923789A0744BF6268C8F800200D
S31508002E20DB0709D504F1080304F1240253F8041B4F
S31508002E30934245F8041BF9D1237840F20640002B4B
S31508002E4018BF002007B0BDE8F0834FF40D70704737
S31508002E5010B5044600099F2C8CBF3730303000F07F
S31508002E6027F804F00F0009288CBF37303030BDE84A
S31508002E70104000F01DB810B50446000AFFF7E8FF39
S31508002E80E0B2BDE81040FFF7E3BF10B50446000CFA
S31508002E90FFF7F1FFA0B2BDE81040FFF7ECBF10B591
S31508002EA0441E14F8010F00B910BD00F001F8F8E748
S31508002EB04FF06043D3F8802ED10709D5D3F8002EFA
S31508002EC0D20701D4704700BF1A68002AFBD01870D1
S31508002ED07047002303604FF08040704770B5D1E912
S31508002EE00152AA4205D290F840302B449B1A402B37
S31508002EF010D9002012E00A6890F84040D65C90F895
S31508002F0041200133224402F03F02013486548B608B
S31508002F1080F840408B689D42EDD8012070BD2DE9B0
S31508002F20F84390F840C017469E46D1E90123089D0C
S31508002F30D21A6244954204460E469DF824909DF89E
S31508002F4028800AD9FFF7CAFF002867D1132341F260
S31508002F50020084F84630BDE8F883754555D8002345
S31508002F6094F840200AB19D4235D1D6E90121914213
S31508002F7001D29D4241D89D424DD129463846D4F8C2
S31508002F808820FEF761FCC4F88800B9F1000F04D068
S31508002F902A463946E06C00F054F894F84330B8F104
S31508002FA0000F06D08BB12B463A463946A06C00F086
S31508002FB037F894F8433043B1E36DA26D2B4493423E
S31508002FC0E36524BF002384F84330636D41F20300B0
S31508002FD02B446365BFE794F84120A25CFA5494F841
S31508002FE041200133013202F03F0284F8412094F86F
S31508002FF04020013A84F84020B2E73268525CFA541D
S31508003000B26801330132B260AFE741F2010013231F
S3150800301084F846309FE741F20200F8E700209AE775
S315080030201FB50C46194600F14803CDE90142009345
S3150800303000F1440200F158032030FFF79BFD04B06D
S3150800304010BD00F00CB8014600F016B86822002141
S3150800305000F03DBB03460020C3E90000704707B5F2
S3150800306000F128030190009300F108030020FEF701
S31508003070FFFC03B05DF804FB02460B4600F128018D
S315080030800830FEF753BD10B500244A1EA1424FEA88
S3150800309082024FF0FF0108BF224640F8044B00F0B9
S315080030A016FB204610BD036840F204500133012B7D
S315080030B098BF0020704740F202507047704770472B
S315080030C0FEF7D4BD01221A70704730B504460D4686
S315080030D0A3B0D0F82C1202AA8023D0F82402FEF757
S315080030E069FE80232146009502AA04F12C00FEF70A
S315080030F051F8D4F82C32C4F830028033C4F82C3294
S3150800310023B030BD1FB50023CDE90033CDE9021346
S31508003110D0F83032044693B9D0E98A329A420ED2B0
S315080031206946FFF7D2FFD4F8300270B141F20702C0
S3150800313040F20123904208BF184604B010BDA37898
S3150800314033B1E07800F20220F7E740F20120F4E715
S3150800315040F20220F1E737B50C46054611462046EF
S31508003160FFF708FE48B969462846FEF70BFE20B960
S31508003170019BC4F82452C4F8283203B030BD38B5D0
S31508003180FDF7B6FE9F20FDF761FEFDF78BFE0546AF
S31508003190FDF794FE0446FDF7B5FE9D2D17D0C22D0A
S315080031A003D01F2D0CD0002038BD42F614039C42D4
S315080031B014D042F616039C420CBF0A200020F3E7FF
S315080031C048F201439C420CBF0E200020ECE744F273
S315080031D013039C420CBF17200020E5E70720E3E70E
S315080031E008B5FDF785FE0620FDF730FEBDE8084068
S315080031F0FDF788BE08B5FDF7BFFDFFF75FFF42F292
S315080032001070FDF739FDFDF773FEAB20FDF71EFEC6
S31508003210FDF778FE47F23050FDF72EFDFFF7AFFFBA
S3150800322090B10C38C0B2012801D9002008BDFFF7BB
S31508003230D7FFFDF75DFE0120FDF708FE0020FDF72C
S3150800324005FEFDF75FFEF0E740F20110EEE710B568
S31508003250FDF74EFE0520FDF7F9FDFDF723FE0446B2
S31508003260FDF750FE04F0010010BD08B5FFF7EFFFAB
S315080032700028FBD108BD38B5054610460C46FEF7B2
S3150800328017FFA04207D3A84205D32C4484428CBF1B
S315080032900020012038BD0020FCE738B505460C465D
S315080032A0FFF7E3FFFFF79CFFFDF722FE2846FDF731
S315080032B0CDFD2046FDF7D6FDBDE83840FDF722BE18
S315080032C070B514460D46002221460646FFF7D3FF81
S315080032D0A8B1FFF7CAFFFDF70BFE0320FDF7B6FD01
S315080032E03046FDF7BFFD2C44A54203D1FDF70AFE83
S315080032F0002070BDFDF7D6FD05F8010BF4E740F296
S315080033000240F6E72DE9F04114460F460022214611
S315080033100646FFF7B0FF002846D0FFF7A6FFFDF7E1
S31508003320E7FD0320FDF792FD3046FDF79BFD254698
S315080033308DB9FDF7E7FDF3B253B326F0FF0505F5A2
S3150800334080753319AB4232BF2546AD1BADB25CB9A9
S315080033502046BDE8F081FDF7A5FDFF2805F1FF35FC
S31508003360E6D040F20340F4E7FFF77FFFFFF738FFA8
S31508003370FDF7BEFD0220FDF769FD3046FDF772FD3B
S3150800338007EB0508B8450AD1FDF7BCFD641B2E44BA
S31508003390B4F5807F254628BF4FF48075D7E717F820
S315080033A0010BFDF753FDEDE740F20240D1E74FF080
S315080033B0FF307047FFF78DBD00232DE9F341054621
S315080033C00DF107008DF807300C46FEF771FE9DF8E3
S315080033D007300646A3F10F02032A25D9133BDBB2B1
S315080033E0022B4FF6FF7347F6FF7732BF4FF40048BC
S315080033F01F464FF4803840F6FF7344EA05021A4226
S315080034003FD1214628460DF10702FFF734FFD8B30E
S315080034100DB9A6420ED06619351B1CB13D4218D10E
S3150800342044451DD2254428E04FF6FF774FF48038EF
S315080034303B46E2E7FFF719FFFFF7D2FEFDF758FD17
S31508003440C720FDF703FDFDF75DFD002002B0BDE8CE
S31508003450F08129462020FFF720FFA4F58054DBE7FA
S315080034602946D820FFF719FF4544A4EB0804D7E7F7
S315080034702020FFF712FFA4F58054291B002CF7D152
S31508003480E3E740F20440E1E740F20240DEE708B530
S31508003490FFF7EBFEFDF72CFDB920FDF7D7FCFDF78E
S315080034A031FDFFF70CFEFDF7C5FC002008BDEFF364
S315080034B0108072B6704700B962B67047436D0B420A
S315080034C0FCD1704708B54368DA0714D58368DB076B
S315080034D002D50369D90707D50A2350218363FFF765
S315080034E0EDFF836C9A07FCD1012200F500535A6060
S315080034F043689B07FCD408BD38B50C460121024633
S3150800350000F58053596004F00F0540F6FF71FFF788
S31508003510D5FF78218563FFF7D1FF04F00103610722
S3150800352048BF43F00203916C01F003019942FAD1B6
S3150800353038BD09B9FFF7C6BFFFF7DEBFC36813F08A
S31508003540F04F05D1836C1906FCD5C06BC0B2704725
S31508003550C36BC26C920601D4D8B27047836C1B0643
S31508003560FCD5F2E7836C5B06FCD541647047836C37
S315080035705A06FCD54164836C1B06FCD5C06B80B229
S31508003580704770B5054614460E46FFF790FF2B6840
S315080035905C4034405C402C60BDE87040FFF78BBF50
S315080035A0436813B9416070475B685A68012AFBD1C2
S315080035B059607047836813B9816070475B685A68B9
S315080035C0012AFBD159607047C369032B9FBF00EBE3
S315080035D083020133D160C3617047C369042B14D8D1
S315080035E04FF09842116CC902FCD504339B00136551
S315080035F00168103B11604168116050F8081F11609E
S315080036004FF098420344984200D1704750F8041F7F
S315080036101160F8E7B0F5802F22D010D8B0F5003F3A
S3150800362020D007D818B3B0F5803F08BF482018BF88
S3150800363001207047B0F5403F08BF2C20F7E7B0F5EA
S31508003640302F11D007D8B0F5E02F0FD0B0F5202FC6
S3150800365008BF1020EBE7B0F57F0F08BF0620E6E7A6
S315080036604B2070472A207047112070472120704749
S315080036702422002100F02BB870B515460E462422E8
S315080036800021044600F023F825F04003802B02D0E1
S31508003690B5F5807F08D12046314640F8045BEA0834
S315080036A000F01DF8002070BD6FF01F00FBE7013920
S315080036B0024410B5904201D1002005E0037811F8C4
S315080036C0014FA34201D0181B10BD0130F2E7024496
S315080036D00346934200D1704703F8011BF9E70A44F1
S315080036E0431E914200D1704710B511F8014B914223
S315080036F003F8014FF9D110BD0000000000000000DA
S31508003700F8B500BFF8BC08BC9E467047F8B500BFC0
S31508003710F8BC08BC9E467047000000000000000088
S31508003720000000000000000000000000000000008B
S31508003730000000000000000000000000000000007B
S3150800374046200020746F20004F4F42203078004FEB
S315080037504F422C2061646472657373206E6F742007
S31508003760696E20616C6C6F7765642072616E67653F
S315080037703B20286164647265737329203078004F92
S315080037804F422C206C656E67746820746F6F206CCE
S31508003790617267653B2028616464726573732920CA
S315080037A03078002C20286C656E677468292030787C
S315080037B000B814B6F1E0CFF3ADB7DD25C9FA79B78D
S315080037C0130057726F6E6720732074797065005303
S315080037D050206E2F692052414D005043206E2F69AC
S315080037E020666C617368004E6F2053422C2061730B
S315080037F073756D652076616C6964004E6F20736918
S31508003800676E61747572652C20617373756D6520BA
S3150800381076616C696400435243207375636365730C
S31508003820730053656375726520626F6F742032008A
S315080038304E6F207369676E00496E76207369676EEE
S31508003840004E6F2041502C20617373756D6520768C
S31508003850616C6964004661756C7420202020202004
S31508003860202020200042544C20656E747279005244
S3150800387065736574206C6F6F702064657465637416
S3150800388065642E2053746F7070696E672E2E2E0035
S3150800389041707020766572696679206661696C0088
S315080038A0456E7465722061707000000013B779FA6E
S315080038B0C925DDB7ADF3CFE0F1B614B801020000B3
S315080038C000000000A83C00004000000003000402BD
S315080038D000000000000000000000000000000000DA
S315080038E000000000000000000000000000000000CA
S315080038F000000000000000000000000007B0CD5ED8
S315080039000200000003000402AC3C0000006000084E
S3150800391000001808F0040100592D00085D2D000864
S3150800392089050008752D0008A52D0008543B0008D8
S31508003930D52D00084B2E00080000000039080008A5
S31508003940310800086E6F7420737570706F72746535
S315080039506420617320454D303147525043434C4BE8
S3150800396020736F757263652E0A0004000007000055
S315080039700D1013001A2026303840500400000700A6
S31508003980000D1013001A202630384050EB17A603F6
S315080039900201000003000000FA0606FA0F04000000
S315080039A003000000F40A0AF40505000001000000FF
S315080039B0EB17A65E0A06000001000000F50909F5E6
S315080039C00307000001000000F60808F606080000D4
S315080039D000000000FE0101FE0808000000000000CB
S315080039E0FD0303FD0C08000000000000F90707F9B5
S315080039F01009000002000000F30B0BF3110A000087
S31508003A0003000000F70A0AF7120B00000300000083
S31508003A10FC0404FC0D0C0000030000007461672020
S31508003A20307800206C656E203078002020556E6155
S31508003A306C69676E656420696E7075742062756658
S31508003A4066657200456E630047424C20766572696A
S31508003A506679206661696C0080000000000000003D
S31508003A600000000000000000000000000000000048
S31508003A700000000000000000000000000000000038
S31508003A800000000000000000000000000000000028
S31508003A9000000000000000006A09E667BB67AE8503
S31508003AA03C6EF372A54FF53A510E527F9B05688C12
S31508003AB01F83D9AB5BE0CD19536C6F743A2000565F
S31508003AC06572696679206661696C00534520757070
S31508003AD0677261646520636F6D6D697420666169DC
S31508003AE06C00534520757067726164652070617259
S31508003AF07365206661696C00424C2075706720000A
S31508003B00202D3E200042746C2075706772616465D2
S31508003B1020636F6D6D6974206661696C0042746C10
S31508003B202075706772616465206661696C004E6F06
S31508003B302061707020696E20736C6F74004170701C
S31508003B402075706772616465206661696C004572EC
S31508003B507220000000010000E51E0008851D00080F
S31508003B60B51D00087D1E0008C11E0008A730000804
S31508003B7087300008B73000085731000805310008BB
S31508003B80F91D00084F320008C13200080533000845
S31508003B90B9330008AF330008000010000000040025
S31508003BA000001000000004000000080000001000DB
S31508003BB00000100000002000000020000000400067
S31508003BC00000800000000800000010000000080047
S31508003BD0000004000000080000001000000020009B
S31508003BE00080000000000100000002000000040040
S31508003BF000000800000000000100000000000000AE
S31508003C0000001000100203009A010000000C0000DA
S31508003C10001000000000080000000000010000007D
S31508003C2001000000100203009A01000000300000A5
S31508003C30001000000000080000000000010000005D
S31508003C4000020000100203009A01000000E00100D3
S31508003C500010000000004000000000000100000005
S31508003C6000200000100203009A01000000780000FE
S31508003C700010000000001000000000000100000015
S31508003C8000000100903C000810100020060000000B
S31508003C90C0EA2101C0EA210100800000C0175302D2
S30D08003CA025020008FD010008D9
S50303CB2E
S70500000000FA
