S03A0000626F6F746C6F616465722D73746F726167652D737069666C6173682D73696E676C652D313032346B42726434313836763434302E733337DF
S315080000000810002079010008C9290008DB2A000821
S31508000010C9290008C9290008C9290008C9290008EA
S31508000020C9290008C9290008C4340008C9290008D4
S31508000030C929000874340008C9290008C929000814
S31508000040C9290008C9290008C9290008C9290008BA
S31508000050C9290008C9290008C9290008C9290008AA
S31508000060C9290008C9290008C9290008C92900089A
S31508000070C9290008C9290008C9290008C92900088A
S31508000080C9290008C9290008C9290008C92900087A
S31508000090C9290008C9290008C9290008C92900086A
S315080000A0C9290008C9290008C9290008C92900085A
S315080000B0C9290008C9290008C9290008C92900084A
S315080000C0C9290008C9290008C9290008C92900083A
S315080000D0C9290008C9290008C9290008C92900082A
S315080000E0C9290008C9290008C9290008C92900081A
S315080000F0C9290008C9290008C9290008C92900080A
S31508000100C9290008C9290008C9290008C9290008F9
S31508000110C9290008C9290008C9290008C9290008E9
S31508000120C9290008C9290008C9290008C9290008D9
S31508000130C9290008C9290008C9290008C9290008C9
S31508000140C9290008C9290008C9290008C9290008B9
S31508000150C9290008C9290008C9290008C9290008A9
S31508000160C9290008C9290008C9290008C929000899
S31508000170013800D0FCE7704708B50D4B83F30A88B1
S315080001800C4B09A1D1E90001C3E9000100F090F880
S3150800019000F058FB00F07EF800F056F800F068F81A
S315080001A000F008FBAFF30080A5EDF5FEA5EDF5FE22
S315080001B008000020081000200348044B834202D0A0
S315080001C0034B03B118477047181000201810002079
S315080001D000000000064B0749C91A891048BF0131BB
S315080001E0491003D0044B0BB101481847704700BFAC
S315080001F018100020181000200000000010B5064C4A
S31508000200237843B9FFF7D8FF044B13B10448AFF37B
S3150800021000800123237010BD30100020000000006C
S315080002204037000808B5054B1BB105490548AFF32B
S315080002300080BDE80840FFF7CDBF00BF0000000002
S315080002401810002040370008064B0748DA1C121A17
S31508000250C11E22F00302994288BF0022034903F017
S31508000260CFB800BF18100020101000204C37000827
S31508000270064B0748DA1C121AC11E22F003029942DD
S3150800028088BF0022002103F0B3B800BF3410002055
S31508000290181000200348044A0449121A921002F062
S315080002A094BB00BF543700085437000834100020A8
S315080002B0044B054A9A60D3F8882042F47002C3F8C2
S315080002C08820704700ED00E0000000081D4B986884
S315080002D0C0F3044010280CD8DFE800F00D0B0B091A
S315080002E00B0B2D1B1D0B1F21232527292B00164819
S315080002F07047002070479B6803F04073B3F1807F16
S315080003001BD0B3F1007F1AD0104A002B08BF104645
S3150800031070470F4870470F4870470F4870470F4897
S3150800032070470F4870470F4870470F4870470F4887
S3150800033070470F4870470F4870470F4870470F4877
S31508000340704700BF00000140C0CF6A0000093D00A9
S315080003500024F400C0EA210180BA8C010048E801B3
S3150800036080D54302006CDC02007E56030090D00361
S3150800037000B4C404405DC60080841E0040420F00DD
S31508000380084B1B6F03F00703022B04D0032B04D082
S31508000390012B04D0FEE7FFF799BF034870470348CF
S315080003A0704700BF00800040C0175302002D31017E
S315080003B008B5FFF7E5FF044B1B6FC3F3033301339F
S315080003C0B0FBF3F008BD00BF00800040004870474E
S315080003D0C017530200487047002D31014FF094436F
S315080003E09868C0F304400C280AD8DFE800F00B0927
S315080003F009090909072119091B1D1F000F4870471C
S31508000400002070479B6803F04073B3F1807F11D0DA
S31508000410B3F1007F10D00A4A002B08BF1046704778
S3150800042008487047084870470848704708487047A2
S31508000430084870470848704708487047405DC60036
S3150800044000093D00C0EA210180BA8C010048E80194
S31508000450005A62020024F40080841E0040420F0005
S3150800046037B500F1006303F500430193104B0D46C1
S31508000470984214461AD8019A0E4B9A4216D2019AF5
S315080004809B1AA34212D348B94FF000639B6A0A4AE3
S315080004905969914202D9186900F09AFA2246294602
S315080004A0019803B0BDE8304002F0ACBA03B030BDE5
S315080004B0FF7FFFF700E01708008000087FB56FF0A0
S315080004C0006200F178419142034619D26D460D4A01
S315080004D002F110062C4610685168083203C4B2426D
S315080004E02546F7D15A1E04A90F3311F8014D12F803
S315080004F0010F844204D19A42F7D1012004B070BD9D
S315080005000020FBE760340008F0B50368044603F1F1
S315080005106043B3F5802F9FB033D84FF000639B6AD2
S3150800052042681E6996422CD8344B9A4229D8456BA4
S3150800053006F14002AA425ED89D425CD82846FFF7DB
S31508000540BDFF002857D0284602F08FFA80B16B69A4
S3150800055073B1022B0ED1AB69C4F1040119444FF0F3
S31508000560FF32204600F0CAFF254BC31A58425841AD
S315080005701FB0F0BD40F2046328460293FFF79EFFC2
S3150800058008B90020F4E74FF000635F6B3846FFF7C1
S3150800059095FF0028F5D0A6F150039F42F1D82846CA
S315080005A003A902F069FA0028EBD0039DAE42E8D809
S315080005B0AC42E6D8114B9D42E3D804A801F062F894
S315080005C021462A1B04A802F0B2FB04A802F0B1FBDC
S315080005D001F068F8044601F083F82346009029469E
S315080005E005F1200204A800F0CDFF02900298B0FAA7
S315080005F080F04009BCE70120BAE700BF00001808F0
S31508000600E320BBDE70B54FF0FF3290B005460C46CE
S3150800061000F074FF1C4B984232D14FF480621B4B9A
S3150800062000219A6601A81C2202F0E2FE184B294610
S315080006306846043C009302F058FE2146684602F0DC
S3150800064054FE684602F05AFE02F0D3F90646B8B9D7
S3150800065040F2022000F068F91C22314609A802F08F
S31508000660C7FE0C4B294608A8089302F03EFE08A8C8
S31508000670214602F03AFE08A802F040FE02F0B9F957
S31508000680002010B070BD00BFE320BBDE0090004024
S3150800069001000543010006434FF4806230B5044665
S315080006A0154B91B09A6600211C2201A802F0A0FE03
S315080006B0124B21466846009302F017FE684602F080
S315080006C01DFE02F096F9054698B940F2022000F0A0
S315080006D02BF91C22294609A802F08AFE084B08A80D
S315080006E02146089302F001FE08A802F007FE02F070
S315080006F080F9002011B030BD009000400000024390
S31508000700000003434FF4806210B50F4B8CB00446CB
S315080007109A6600211C2205A802F06AFE0B4B01947A
S315080007200493012302930A4B01A904A8039302F038
S31508000730D2FD04A802F0E2FD02F05BF9B0FA80F0FF
S3150800074040090CB010BD00BF0090004000000843EF
S3150800075004000020004870470080000837B50C46A2
S315080007600546E0B1D9B100230B60114B036002F0D6
S31508000770AFFC013018BF2B6801A81CBF43F4C04367
S315080007802B604FF0FF33019302F0A5FC019B43B9A0
S315080007902B6803432B60236843F40023236003B0CC
S315080007A030BD012B02BF236803432360F3E700BF74
S315080007B00C1200084FF04023D3F8842013B5110615
S315080007C006D44FF400621A67D3F88420D206FBD405
S315080007D002F075F900F09AF808B900F07FF802F00F
S315080007E0E5FA044658B900F091F808B100F086F821
S315080007F040F2012000F0C2F84FF4017018E000F052
S3150800080085F808B900F072F800F09AF8012802D9BC
S3150800081000F064F8FEE700F09FF8094B0193019B8E
S31508000820002B0ADC40F205439C42E5D140F2032046
S3150800083000F0A4F8002002B010BD019B013BEDE7D3
S3150800084000350C00012307B58DF806308DF8073002
S315080008504FF04023D3F894305A060FD500F0A2F88B
S31508000860A0F2022080B2072808D8C923C340DB07B4
S3150800087042BF00238DF806308DF80730154B5B68AC
S31508000880013308D14FF4027000F04EF800238DF8BA
S3150800089006308DF807309DF807305BB10D48FFF735
S315080008A033FE8DF806009DF806301BB94FF402702A
S315080008B000F03AF89DF806304BB100F027F808B179
S315080008C000F01CF80348044B986002F0FCF803B0EB
S315080008D05DF804FB0060000800ED00E04CF23C32D5
S315080008E0014B5A80704700BF000000204AF6C0320C
S315080008F0014B5A80704700BF000000204FF20F02DC
S31508000900014B5A80704700BF000000204AF6C030ED
S31508000910044B5B8823F00F039BB21B1A58425841BD
S31508000920704700BF00000020044A08B51080FFF792
S31508000930EDFF10B94FF20F03538008BD00000020E9
S3150800094008B5FFF7E3FF18B1024B588800F00F000F
S3150800095008BD00BF0000002008B5FFF7D7FF48B163
S31508000960054A538803F00F010F2914BF013323F0FA
S315080009700F03538008BD00BF0000002008B5FFF72D
S31508000980D3FFBFF34F8F0549054BCA6802F4E062EF
S315080009901343CB60BFF34F8F00BFFDE700ED00E0C8
S315080009A00400FA054FF20F01084B5A888A4201D112
S315080009B0188870473AB91B8840F20220012B18BFE5
S315080009C04FF4007070474FF4007070470000002025
S315080009D04FF4803208B5044B9A6601F0D1FDB0FA9F
S315080009E080F0400908BD00BF00900040072BF8B50D
S315080009F006460F4614461D4601D90020F8BD0121BA
S31508000A00202001F099FB0121212001F095FB8CB1F2
S31508000A1044EA06039B07F0D14FF48032064B314671
S31508000A209A66284623463A4601F0D2FDB0FA80F087
S31508000A304009E3E70120E1E70090004010B50446CD
S31508000A4000F0E4F8074BB0FBF3F304FB03F00228CD
S31508000A5006D9BDE810400323B0FBF3F0FFF788BBC7
S31508000A6010BD00BF40420F004FF08062024B5A662D
S31508000A704FF400029A6670470090004010B5FFF7E1
S31508000A80F3FF012100230422022001F00FFD0222B8
S31508000A9000231146104601F009FD00230422032114
S31508000AA0022001F003FD0422194C114601230220FD
S31508000AB001F0FCFC204601F059FC164A164B0521AC
S31508000AC0DA642123236140F20143A36041F2020361
S31508000AD02046636102F0BEFB104A0021204601F061
S31508000AE06FFC0F4B0F4AC3F8CC244FF00212C3F821
S31508000AF0C42402F58032C3F8C8241C22C3F8B424DF
S31508000B000523A363636D13F0280FFBD110BD00BF47
S31508000B1000000A40FF3F0D0300100A4000A86100CC
S31508000B2000C003400200010008B5FFF79DFFBDE8BD
S31508000B3008400021014802F08DBB00BF00000A40B2
S31508000B4008B50146FFF790FFBDE80840014802F0E6
S31508000B509FBB00BF00000A4038B505460D4CC0F3E0
S31508000B6007412046FFF780FF02F08DFB2046C5F3BC
S31508000B70072102F088FBE9B2204602F084FB2046F2
S31508000B8002F06DFB204602F06AFB2046BDE83840BD
S31508000B9002F065BB00000A4008B5FF210348FFF7CD
S31508000BA063FF02F075FBC0B208BD00BF00000A4033
S31508000BB038B50B4DFF212846FFF756FF02F063FBB9
S31508000BC0FF21284602F05FFB284602F048FB040294
S31508000BD0284602F044FBA4B2204380B238BD00BFC9
S31508000BE000000A4008B5FFF73FFF1022014BC3F883
S31508000BF0A02008BD00E0034008B5FFF735FF102226
S31508000C00014BC3F8A02008BD00D0034030B51C4BEB
S31508000C1087B001AA03F11005144618685968083305
S31508000C2003C4AB422246F7D11B782370154B1B6FC2
S31508000C3003F00703032B1FD04FF48022124B5A668A
S31508000C40124A9368C3F30443102B17D818336B441E
S31508000C500F4913F8143C4B430E498B4203D1926853
S31508000C60C2F30162D340074A106FC0F30330013064
S31508000C70B3FBF0F007B030BD074BF4E7074BF2E7DC
S31508000C800C3500080080004000900040000001403C
S31508000C9040420F0000093D0000F04902C0EA210168
S31508000CA030B5024600230C25054905FB03F46018F8
S31508000CB00C59944203D001330C2BF6D1002030BDD9
S31508000CC020350008F0B50023082787B0CDE90133A1
S31508000CD015463B46009704AA044601F096FF41F2E2
S31508000CE003039842064623D194F8433053B13A4653
S31508000CF0E06C04A902F01BF804AA3B461146A06C56
S31508000D0002F004F8059A049B6A6094F843202B6065
S31508000D1052B9094A934207D0084A934204D0082296
S31508000D20E06C04A902F003F86B6823650023636589
S31508000D30304607B0F0BD00BFF70A0AF7FC0404FC0A
S31508000D402DE9F04799465B6804460F469046002B06
S31508000D503FD08B0740D14FF000639B6A006E1B693A
S31508000D6081181D1DA9421BD31C33984218D2A842CC
S31508000D70024638BF2A46994294BFC2EB010AC2EB23
S31508000D80030A101A3E18C5F1680010443146524647
S31508000D90204402F035FB5246FF21304602F028FB7C
S31508000DA0226E0F4B9A420BD80E4902EB0800884276
S31508000DB006D39B1AFA58C4F880204FF0FF32FA502F
S31508000DC0D9E9003542463946206EA847236E434482
S31508000DD023660020BDE8F08741F20200FAE700BF6B
S31508000DE004800008088000082DE9F04100254FF02E
S31508000DF0FF3704468846164603F0200380F842303B
S31508000E001822FF21C0E91855A0F8405080F8435031
S31508000E10A0F8445080F84650C0F88870683002F050
S31508000E20E7FA88222946C4E91286C4F88070C4F80D
S31508000E30847004F1900002F0DBFA074BC4F82071C5
S31508000E40C4E9463584F8245116B1304600F01AFC38
S31508000E500020BDE8F08100BF000101012DE9F04F37
S31508000E60A5B09946CDE91123002304460E464FF056
S31508000E7001082E9D1393139978E094F846300C2BAD
S31508000E8070D8062B4BD908FA03F212F4286F40F0F3
S31508000E900F8212F4885F40F0BA810A2B66D1DFF818
S31508000EA0BCA3636D072B00F228814FF0080B38238B
S31508000EB016AA2046CDE90188CDF800B011A901F09F
S31508000EC0A4FE41F203030A900A9A9A4200F03F816F
S31508000ED00A9B5BE0A3F10E02052A00F29482DFE882
S31508000EE012F006030600F500360236020403002750
S31508000EF0636D0F2B00F28A80102314AA00932046F4
S31508000F004023CDE9018711A901F07FFE41F20303D1
S31508000F100890089A9A4200F0CB80089B36E0013B7D
S31508000F20052B27D8DFE813F074006E000600C4010D
S31508000F30DC007B010127636D072B00F2DE800823A6
S31508000F4014AA009320464023CDE9017711A901F0A0
S31508000F505CFE41F203030B900B9A9A4200F0218142
S31508000F600B9B13E0A3F10D02062AB3D9494584D396
S31508000F70002065E014AA204611A9FFF7A3FE41F256
S31508000F8003020590059B934208D0059B049341F202
S31508000F900303049A9A423FF46EAF50E0159A1499E7
S31508000FA0226500226265AB4A914240F0078102221F
S31508000FB084F84620EAE7082314AA0093204640232B
S31508000FC0CDE9018711A901F020FE41F2030306903D
S31508000FD0069A9A4201D0069BD8E7149B03F07F43F2
S31508000FE0B3F1407F05D0132384F8463041F2090354
S31508000FF0CCE7159BD90706D594F8423043F0010390
S3150800100084F842300027636D072BD4D9012303E106
S31508001010204614AA11A9FFF755FE41F203030790CB
S31508001020079F9F420FD0079F41F203030497049A34
S315080010309A423FF420AF049B0BB10023F370049847
S3150800104025B0BDE8F08F1498FFF72AFE28B91323B8
S3150800105041F2080784F84630E6E7437994F82421F4
S315080010609A4205D9132341F20E0784F84630DBE786
S31508001070026879498A4205D00289D20748BF0133F6
S3150800108084F8243194F84230D9070DD5028994F8AA
S315080010904330920706D53BB1132341F2010784F882
S315080010A04630C1E7002BF7D0037984F84630BBE712
S315080010B0D4F848A000F032FB80230221CDE90003D2
S315080010C015AA0123504600F031FA11E7226D0123D3
S315080010D0A265002284F84330E26584F84630CAE601
S315080010E000213C2215A81491012702F081F9D4E9C0
S315080010F01432934204D884F8467041F2030345E754
S31508001100009314AA40232046CDE9017711A901F0DE
S315080011107CFD41F203030990099A9A4201D0099B82
S3150800112034E70DF1500C06F108030DF1680E62461E
S3150800113003CA724518605960944603F10803F6D14C
S3150800114010681860337843F001033370CFE73378BB
S3150800115043F004033370179BB36273785F071CD59B
S315080011600020236DCDF850A0C4F8843094F845309B
S31508001170606643F0020384F84530EF686FB10422D5
S315080011802B6814A9B847606E2B685A46EF6816A9EB
S315080011900830B847636E103363660B2384F846300D
S315080011A07FE6337843F002033370149B7360236D34
S315080011B0083B7362159BB3F1006F05D0132384F8BF
S315080011C0463041F20103E1E6042384F8463094F8F8
S315080011D0453043F0010384F8453000236366AAE6E8
S315080011E0042314AA009320464023CDE9017711A9C8
S315080011F001F00BFD41F203030C900C9A9A4201D0C0
S315080012000C9BC3E6226D149B042A01D92366012789
S31508001210636D032BE4D9092384F846306DE7002370
S315080012206366072359E79F4252D89F4228BF1F4645
S31508001230402314AA2046CDE90188009711A901F098
S31508001240E4FC41F203030D900D9A9A4211D00D9BCE
S315080012509CE600BFEB17A603F90707F9EB17A65E8E
S31508001260402F28BF40279F4228BF1F4627F0030765
S31508001270DEE794F846B0BBF1070F2FD0042FC7F16D
S31508001280040A88BF4FF0000A14AB5246FF21D8194A
S3150800129002F0AEF8BBF1090FBA442DD12B465246DF
S315080012A0204614A9FFF74CFD0D900D9B002BCED1BF
S315080012B0D4E914739F427FF6A9AEFF1ADDE912320C
S315080012C09B1A94F84020032F1344ACD9032BC7D894
S315080012D0204611A901F078FC002357E6D5F808A0A6
S315080012E0BAF1000FCAD02B683A46606E14A9D047E7
S315080012F0636E3B446366DBE7BBF1040F1DD173786D
S315080013009807D5D5EB68002BD2D0626E042A0BD885
S315080013100AEB0203062B07D915AB9B1A1A68C4F801
S3150800132084204FF0FF321A60EF682B685246606ED1
S3150800133014A9B847636E5344DCE7BBF10B0FB7D16A
S3150800134073785907B4D5EF68002FEED1B0E74FF0A0
S3150800135000618A6A496B1269503A91423FF631AF89
S31508001360112B0FD194F81831002B7FF44FAE41F2B0
S3150800137006030E930E9A9A4202D1132384F8463036
S315080013800E9B03E694F84430002B7FF43FAECDE97C
S315080013900133402314AA0093204611A901F035FC15
S315080013A041F203030E900E9A9A42E9D1E06C01F0DD
S315080013B0C0FC94F81831A3B104F1B4030093E06CAF
S315080013C004F194031CAA14A900F0DCF80E900E9BF5
S315080013D0A3B10023F370132384F8463041F20603C1
S315080013E0D4E5D4F84CA000F05DF9074600F078F98A
S315080013F03B4600901CAA504614A9E5E70123F37062
S3150800140084F8443002E600234FF00408CDE901339E
S3150800141014AA40232046CDF8008011A901F0F5FB57
S3150800142041F203030F900F9A9A4202D00F9B04933E
S3150800143005E6D4F888202F4B9A4205D0132384F862
S31508001440463041F20503F2E70123F37094F845307C
S31508001450DA0707D5EF682FB1424640462B6804F1F4
S315080014608401B84794F845309B0707D5EF682FB134
S3150800147004222B68104604F18401B847236E6BB327
S315080014806F685FB34FF0FF3304F1800804224146CA
S3150800149010A8109301F09CFF20B1042241462B6846
S315080014A01548B84704F168090422494610A801F00E
S315080014B08FFF98B14FF000639B6A1422D3F810800F
S315080014C004F16C0108F10800D5E90037B847D5E9F9
S315080014D000370422494608EB0200B8470123B370D7
S315080014E00E2384F846300023A1E70023F37041F267
S315080014F00700A5E5E320BBDE0480000830B5082414
S31508001500094B00255C66012403F5FE235C60014453
S315080015109D601A61DC60884201D1586A30BD10F8B6
S31508001520012B1A62F7E700BF009000402DE9F04151
S3150800153016464FF480621D46114B00F120080446FA
S315080015409A6640460F4601F024FFDDE9061240463A
S3150800155001F023FF002384F8587063643368C4F8E5
S3150800156059307368C4F85D30B368C4F861302B0C21
S315080015706DBA84F86530A4F86650BDE8F08100BFFE
S31508001580009000402DE9F04315464FF480621C4652
S31508001590364B99B0DDF880900E4607469A660028C5
S315080015A061D000295FD0002D5DD0002C58D0304B7B
S315080015B0304AB9F1000F14BF984690461C22002104
S315080015C011A801F015FF2C4B414610A8109301F005
S315080015D08CFE202110A801F088FE0122274B0194D9
S315080015E002920393CDF810900592069354B1B9F17F
S315080015F0000F07D001A910A801F063FE04A910A8DE
S3150800160001F05FFE079701271C4C07A910A8089749
S31508001610099401F056FE0AA910A80A960B970C948D
S315080016200D950E970F9401F04CFE0DA910A801F028
S3150800163048FE10A801F062FE114B00934FF0984344
S315080016405A6CD202FCD55B6D40F2046003F4702339
S315080016500093009B002B08BF002019B0BDE8F0835B
S31508001660DFF81080AAE740F20160F6E70090004034
S315080016701F2400801F24FC8400000106200000208F
S31508001680785634124FF4806210B50446044B9A66B5
S3150800169001F052FB2046BDE81040002101F050BB86
S315080016A0009000404FF4806200B50B4B99B09A66E3
S315080016B000212022684601F09BFE4023002168464F
S315080016C008AA01F025F820F010000128034818BFE1
S315080016D0002019B05DF804FB009000404CE31708A1
S315080016E04FF4806200B50B4B99B09A660021202210
S315080016F0684601F07DFE40230021684608AA01F0ED
S3150800170007F820F010000128034818BF002019B078
S315080017105DF804FB009000406CE31708004870472A
S3150800172086E217082DE9F3471446DDE90A920D46C5
S315080017301F4600284DD14CB313683F2B2AD8516851
S3150800174051B32549002F14BFB846884603F03F0613
S315080017501B19136022BF536801335360FEB93F2C2F
S315080017600ED9A3092A46009341463B46002000F0BD
S3150800177083F824F03F031D4404F03F0434B10026E7
S315080017802246294609EB060001F03AFE002002B07F
S31508001790BDE8F087B846D9E7DFF83C80D6E7C6F15A
S315080017A0400A5445ECD32946524609EB060001F097
S315080017B027FE0123264400934A463B46414600201D
S315080017C0A6F1400400F058F83F2C5544D6D9B8463F
S315080017D0C7E70248DBE700BFF035000880AFFFFF28
S315080017E02DE9F0411746146886B01E46E3008DF8C9
S315080017F00F3063098DF80E30630B8DF80D30630DCD
S315080018008DF80C3053680546DA0002EB54728DF8F1
S315080018100B2004F03F045A09372C8DF80A204FEAAA
S3150800182053324FEA53538DF80920884694BFC4F1C2
S315080018303802C4F17802CDE900178DF808300D4951
S3150800184003460020FFF76EFF08222B460020CDE94D
S3150800185000870DEB0201FFF765FF284605F1200317
S3150800186050F8042B984246F8042BF9D1002006B00C
S31508001870BDE8F081B0350008F0B517464FF4806230
S315080018801D46254B93B00E469A6604462022002133
S315080018900AA801F0ADFD01204FF000520197029011
S315080018A00392049605900692079508900992002CD3
S315080018B02FD1189C194BA40121460AA80A9301F0B6
S315080018C014FD039B04A91C430394069B0AA843F032
S315080018D020030693099B43F02003099301F0F1FCCA
S315080018E001A90AA801F0EDFC07A90AA801F0F3FC72
S315080018F00AA801F003FD4FF098435A6CD202FCD5B2
S315080019005B6D13F4702F14BF6FF06F00002013B0D7
S31508001910F0BD6FF07100FAE7009000400004010383
S3150800192010B5ADF50E7D4FF40D72002001A901F03A
S3150800193088FA40F20124002101A801F059FAA042D0
S31508001940F9D040F20323984204D040F205400DF541
S315080019500E7D10BD9DF8043059070DD49DF804304E
S315080019609A0719D4DB07F0D504998A9800F03CF950
S315080019700028EAD00020EAE70B9801F090F8002842
S31508001980ECD08A9800F0EEF80028E7D00B48FEF76E
S3150800199083FE0028E2D1D8E74FF00062926A0299E6
S315080019A092689142DED98A9800F0FAF80028CCD0DD
S315080019B00A990248FEF726FEC7E700BF008000081E
S315080019C031B10A4B5A68824205D80023C1E900336F
S315080019D040F201407047013053F8302003EBC00352
S315080019E05B6800200A604B60704700BFB03600088D
S315080019F070B40C4611461A460D4B5D68854210D9DF
S31508001A00013003EBC0056D68A618AE420DD8A54295
S31508001A100BD3954209D353F83000204470BC01F02B
S31508001A20E0BA40F2014070BC704740F20240FAE763
S31508001A30B036000870B50D46002186B00DF10703D3
S31508001A4002931C4B04461646116028461C22CDE913
S31508001A5003338DF80710059301F0CAFC9DF807209B
S31508001A6032B9D4F830321BB9D4E98A31994219D33C
S31508001A702378990744BF61683160DB0709D504F10B
S31508001A80080304F1240153F8040B8B4245F8040BB0
S31508001A90F9D162B9237840F20640002B18BF00201E
S31508001AA006B070BD204602A901F085F9D6E70020E8
S31508001AB0F6E700BFB12D000870B40C4611461A4669
S31508001AC00D4B5D68854210D9013003EBC0056D6882
S31508001AD0A618AE420DD8A5420BD3954209D353F8A2
S31508001AE03000204470BC01F09EBA40F2014070BC40
S31508001AF0704740F20240FAE7B0360008074B5A68CA
S31508001B00824207D9013003EBC002516853F830000E
S31508001B1001F0E3BA40F20140704700BFB036000852
S31508001B2070B5054688B0C0B14FF4403200236C4604
S31508001B30C0E900230A4B05F114061A785B6802729D
S31508001B40C360684600F06EF80FCC0FC694E80F0025
S31508001B5086E80F0005F114032B6108B070BD00BFBD
S31508001B60B036000800B5ADF5137D4FF40D7205A922
S31508001B7001F067F978B904238DF81530074BCDE9DC
S31508001B800100039001A905A8049301F06EF90DF56B
S31508001B90137D5DF804FB0020F9E700BF6104000827
S31508001BA04FF0006300B59B6AADF5137D9B688B42C9
S31508001BB004D300200DF5137D5DF804FB4FF40D7278
S31508001BC005A901F03EF90028F3D102238DF8153056
S31508001BD0044BCDE90100039001A905A8049301F07F
S31508001BE044F9E7E76104000800B5ADF5137D4FF445
S31508001BF00D7205A901F025F978B901238DF815307C
S31508001C00074B0190CDE90230049001A905A801F01F
S31508001C102CF90DF5137D5DF804FB0020F9E700BFEC
S31508001C20492A000870B588B0064601F0AFF92022A7
S31508001C300021684601F0DCFB01F032F90E2820D0BD
S31508001C400CD807280FD00A2818D035466C460FCC72
S31508001C500FC594E80F0085E80F000CE01728F4D1AB
S31508001C603446094D01E03446084D0FCD0FC495E8BA
S31508001C700F0084E80F00304608B070BD3446044DA6
S31508001C80F3E73446034DF0E7C0360008203700086E
S31508001C9000370008E036000810B5044601F076F96A
S31508001CA054B901F0FDF80138C0B2162896BF064BA4
S31508001CB0002053F8200010BD20780028F3D101F049
S31508001CC0EFF82070EFE700BF5436000838B5104B20
S31508001CD00546D3F880300C4603F00303022B0BD0DD
S31508001CE0032B0DD0012B0FD1FEF74AFB0E2305B1AE
S31508001CF0286004B1236038BDFEF770FB0723F6E7BA
S31508001D00FEF7E4FA0623F2E700231846EFE700BFDA
S31508001D100080004038B5184B0546D3F820010C461C
S31508001D2000F00700062823D8DFE800F0040A0E169C
S31508001D30121A1E00012305B1286004B1236038BDBC
S31508001D40FEF7C4FA0523F6E7FEF740FB0323F2E79E
S31508001D50FEF744FB0723EEE7FEF73CFB0223EAE720
S31508001D60FEF7B4FA0623E6E7FEF730FB0423E2E7BC
S31508001D7000231846DFE700BF0080004038B5174B40
S31508001D800546D3F828310C4603F00703013B052B1B
S31508001D9020D8DFE803F003131B0F0B17FEF796FA9C
S31508001DA0052305B1286004B1236038BDFEF78EFA15
S31508001DB00623F6E7FEF712FB0723F2E7FEF706FB14
S31508001DC00323EEE7FEF702FB0423EAE7FEF702FB2E
S31508001DD00223E6E700231846E3E700BF0080004039
S31508001DE073B50D460021114B0191D3F88041064683
S31508001DF004F00304022C13D0032C0CD0012C13D1AD
S31508001E0001A8FFF787FF10240EB1019B336005B1C7
S31508001E102C6002B070BDFEF7E1FA07240190F3E7E3
S31508001E20FEF7D8FA0190EFE70C46EDE70080004090
S31508001E30002337B50193164B0546D3F820320C46D6
S31508001E4003F00703042B21D8DFE803F0030B111670
S31508001E501B0001230DB1019A2A6004B1236003B067
S31508001E6030BD002101A8FFF789FF1223F2E7FEF72C
S31508001E70B5FA07230190EDE700F0B2FD0A230190B9
S31508001E80E8E700F0B3FD09230190E3E70023E1E763
S31508001E900080004038B5104B0546D3F840310C4653
S31508001EA003F00303022B0BD0032B0DD0012B0FD10C
S31508001EB000F096FD0A2305B1286004B1236038BDF9
S31508001EC000F094FD0923F6E700F08DFD0C23F2E7F8
S31508001ED001230020EFE700BF00800040002337B54C
S31508001EE00193164B0546D3F860320C4603F00703F8
S31508001EF0013B032B1FD8DFE803F0020E191400215B
S31508001F0001A8FFF707FF10230DB1019A2A6004B153
S31508001F10236003B030BD002101A8FFF7BBFF1123E2
S31508001F20F2E7FEF75BFA07230190EDE7FEF752FAB0
S31508001F3002230190E8E70023E6E700BF008000409F
S31508001F40002337B50193164B0546D3F894320C4651
S31508001F5003F00703013B032B1FD8DFE803F0020E4B
S31508001F601914002101A8FFF7D5FE10230DB1019A17
S31508001F702A6004B1236003B030BD002101A8FFF731
S31508001F8089FF1123F2E7FEF729FA07230190EDE707
S31508001F90FEF720FA02230190E8E70023E6E700BFF0
S31508001FA00080004038B5144B0546D3F800020C46AD
S31508001FB000F0070004281BD8DFE800F003090D111C
S31508001FC01500012305B1286004B1236038BD00F06F
S31508001FD007FD0A23F6E700F009FD0923F2E700F0FA
S31508001FE002FD0C23EEE7FEF7E3F90F23800AE9E783
S31508001FF000231846E6E700BF0080004038B5144BBA
S315080020000546D3F808020C4600F0070004281BD83A
S31508002010DFE800F003090D111500012305B128605A
S3150800202004B1236038BD00F0DBFC0A23F6E700F0B4
S31508002030DDFC0923F2E700F0D6FC0C23EEE7FEF7F9
S31508002040B7F90F23800AE9E700231846E6E700BF39
S315080020500080004038B5104B0546D3F840320C4690
S3150800206003F00303022B0BD0032B0DD0012B0FD14A
S3150800207000F0B6FC0A2305B1286004B1236038BD18
S3150800208000F0B4FC0923F6E700F0ADFC0C23F2E7F8
S3150800209001230020EFE700BF0080004038B5104B51
S315080020A00546D3F860310C4603F00303022B0BD028
S315080020B0032B0DD0012B0FD100F092FC0A2305B19A
S315080020C0286004B1236038BD00F090FC0923F6E7C8
S315080020D000F089FC0C23F2E701230020EFE700BF9C
S315080020E000800040B0F5207F1FD009D8B0F5007FEA
S315080020F015D003D868B1B0F5C07F0AD000200CE02F
S31508002100B0F5607FFAD10B4BD3F88000C0F301100D
S3150800211003E0084B186FC0F3033001307047054BD6
S31508002120D3F89000C0F30460F7E7024B186FC0F3CA
S315080021308020F2E700800040430905D0012B0CD02F
S31508002140022B084B18BF002300F01F0039B103F516
S315080021508053012282401A607047034BF4E703F567
S315080021600053F6E768800040648000401FB50021F0
S3150800217080280446CDE9001100F0A58035D85E28F0
S3150800218046D85E2844D8DFE800F0A24343434343D9
S315080021904343434343434343434343434343434301
S315080021A043434343434343434343A2AAA2AABABA77
S315080021B0BABABAAAC44DDA714DAAAAAA4343434386
S315080021C043434343AAAAAA79E4AA4343434343435E
S315080021D043434343434343BAA2A2A2DF4D4DE98892
S315080021E05EBF434343434399A200B0F5B06F00F086
S315080021F090802DD8B0F5207F71D00CD8B0F5C07F6F
S3150800220065D0B0F5007F65D0B0F5807F00F0868098
S31508002210009804B010BDB0F5607F6BD00DD8B0F54E
S31508002220407FF5D1FEF7C4F802464FF42070FFF759
S3150800223059FFB2FBF0F252085AE0B0F5806F5ED053
S31508002240B0F5A06FE4D100216846FFF7F1FDDFE79E
S31508002250B0F5106F78D016D8B0F5E06F79D00AD8F7
S31508002260B0F5C06F6BD0B0F5D06FD1D100216846FC
S31508002270FFF798FECCE7B0F5F06FC9D100216846A4
S31508002280FFF70CFFC4E7B0F5406F3DD013D8B0F5A3
S31508002290206F63D0B0F5286FBAD10021324B039175
S315080022A0D3F8703203F00303012B02D103A8FFF71A
S315080022B0F1FD039B3CE0B0F5486FA9D100216846C3
S315080022C0FFF73EFEA4E7FEF75BF80090A0E7FEF7EF
S315080022D06FF8FAE7FEF754F80246204604E0FEF7E0
S315080022E067F802464FF42070FFF7FCFEB2FBF0F2E7
S315080022F000928DE701A8FFF7E9FC019AEDE70021B6
S315080023006846FFF707FD83E700216846FFF736FDB5
S315080023107EE700216846FFF763FD79E74FF0E02383
S3150800232002911B695B0705D5FEF742F80290029BEE
S3150800233000936DE703A902A8FFF7ACFDF7E70021B4
S315080023406846FFF7A7FD63E700216846FFF756FED4
S315080023505EE700216846FFF77DFE59E700216846DB
S31508002360FFF7BCFD54E700BF0080004010B500F041
S315080023703AFF042300F5805100F500520B61136102
S315080023800B6113610B6113610B611361202341F229
S31508002390020103610023C360836041614FF4A021F9
S315080023A08361836541620549C36103628362C362CF
S315080023B043630365D164036310BD00BFFF3F0D038C
S315080023C070B505461446084641B9354B9D4218D0A6
S315080023D0344B9D4208BF5720FFF7C8FEAB6813F081
S315080023E0010F6B6830D0B0FBF4F4D80704F1FF3462
S315080023F04FEA046407D42B6923F07F4323432B61F8
S3150800240070BD5620E8E72821284600F0E8FEAB6CA8
S31508002410990715D1AB6CDA0714D4AB6C13F0020F1D
S3150800242014BF06260026284600F0DDFE2B69314635
S3150800243023F07F4323432B61BDE8704000F00ABFB9
S315080024400526F0E70926EEE7AB6DDB07AB6848BF64
S31508002450640003F0E003402B1BD004D8DBB1202B2B
S31508002460CED1082304E0602B17D0802BC8D10123D6
S3150800247063434101B1FBF3F20B4B203A284603EACA
S31508002480C202012100F0ABFE2A63BDE8704000F0ED
S31508002490A6BE0623ECE71023EAE70423E8E700BF15
S315080024A00000014B00000A40F8FF7F002DE9F041CB
S315080024B005460F461E4690464AB101233022194C5E
S315080024C08B4002FB004436B304F5825423600F2187
S315080024D0072F05EB450388BFA7F108044FEA031346
S315080024E0114895BFBC00A40004330C3308FA04F263
S315080024F0A140184400F0D6FEB8F1000F09D1012317
S315080025003021084ABB4001FB05223EB102F5825242
S315080025101360BDE8F08104F50154D7E702F50152CE
S31508002520F6E700BF00C0034030C00340F0B5114ACB
S31508002530114C124E00F00105E3695F0713D40DB97B
S31508002540334213D103EA00078F4207D10B4A1A40D8
S31508002550002A0CBF00206FF00100F0BD013AEBD154
S315080025606FF00200F9E74FF0FF30F6E76FF0010071
S31508002570F3E700BF809698000000034002000100C0
S315080025804FF4803238B50E4B0E4C9A66E56941F623
S31508002590713315400122E3630B4B0021DA600223F5
S315080025A0606121202361FFF7C1FF10B92120FFF7E1
S315080025B0BDFF0122054BDA600DB10023E36338BD88
S315080025C00090004000000340001003400020034034
S315080025D02DE9F04F01274FF4302530268400DFF827
S315080025E0C0C004F1402404F58024CCF8047065606A
S315080025F000244FF48035DFF8ACE0DFF8AC9006FB3A
S3150800260000E6F46534663467234CDFF8A0A0A566B7
S3150800261041F6713504F51C34D4F81C80E563E56889
S3150800262007FA00F03D43E5604BB9E26818F4803FCD
S3150800263022F00102E26029D10020BDE8F08F01F501
S31508002640005505EA09056D1A9D4228BF1D466161B8
S31508002650D4F81CB0AF081BF0040F19D1013F3F0195
S3150800266047F060577766B266C6F86CA0CCF82400C7
S31508002670DEF834703842FBD0084F294478630427C3
S31508002680CCF828002A4427615B1BCDE7E363D3E730
S315080026904FF0FF30D1E700BF009000400020044013
S315080026A0001004400000044000E0FFFF180003404B
S315080026B04FF48062014B00209A66704700900040F4
S315080026C04FF48062014B00209A66704700A00040D4
S315080026D008B5B0B14FF480620B4B9A6600F00EFE57
S315080026E04FF098435A6CD202FCD54FF48062586D6D
S315080026F0064B10F470209A6604D0BDE8084000F036
S315080027001ABE212008BD00BF0090004000A000406E
S315080027101FB5044660B35AB3402B29D1930727D176
S31508002720042925D8DFE801F0031A24221E004FF4F5
S31508002730807310490B4323600023C4E90133E36126
S315080027400123019202930C4B204601A9039300F042
S31508002750C2FD2046FFF7BCFF04B010BD4FF400735E
S315080027600449E7E705494FF48063E3E70149FAE7D7
S315080027702120F1E7010008FF40000020000008FFC3
S315080027802DE9F041012905460E4690461F4692B0AE
S315080027904AD8046824F04003802B02D0B4F5807F21
S315080027A045D11C2200210BA800F022FE234A244B07
S315080027B00121012E08BF13460A932B1D0193E40835
S315080027C0204B44F0005402910AA80394CDF81080D7
S315080027D0059106930797089101A9099300F071FDE1
S315080027E004A90AA800F06DFD07A90AA800F073FD60
S315080027F029680AA8C90800F078FD10210AA800F07F
S3150800280074FDFFF755FFA8B90AA800F077FD4FF049
S3150800281098435A6CD202FCD55C6DFFF751FF04F45D
S31508002820702012B0BDE8F0816FF02000F9E76FF074
S315080028307100F6E74FF0FF30F3E700BF0001000430
S3150800284000010104100000202DE9F04F07468946D3
S315080028509846164699B082B115683B6823F040023F
S31508002860802A03D0B3F5807F40F0A68000244C452B
S3150800287005D306B1356000207BE01546EDE75DB16E
S31508002880239B229A1B5D525D01355340249A05F01D
S315080028900F0513550134EAE7A9EB040ABAF10F0F3D
S315080028A00BD8239B03EB040A249B1C44239B03EBB2
S315080028B0090BDA4560D14C46D9E71C22294611A8EE
S315080028C000F096FD3E4B3A6810933B1D0193012399
S315080028D0D20842F00052029303923A4ACDF8108089
S315080028E005930692CDF81C8008930992239A249999
S315080028F022442AF00F0A0A9221444AF000520B9306
S3150800290010A80C920D9101A90E930F9200F0D9FC14
S3150800291004A910A800F0D5FC0AA910A800F0D1FC5B
S315080029200DA910A800F0D7FC07A910A800F0D3FC41
S31508002930396810A8C90800F0D8FC514610A800F05C
S31508002940D4FCFFF7B5FE90B910A800F0D7FC4FF0FD
S3150800295098435A6CD202FCD5586D544400F4702B37
S31508002960FFF7AEFEBBF1000F9BD0584601E04FF0D3
S31508002970FF3019B0BDE8F08F55B1229A1AF8013B1D
S31508002980525D0135534004F8013B05F00F0590E709
S31508002990424601213846229BFFF7F2FE0028E8D17D
S315080029A008F1100212F8013D0133DBB21370002B57
S315080029B0E3D19045F6D1E0E76FF01F00D9E700BFF5
S315080029C00303000410000020FEE710B53AB1002307
S315080029D050F8234041F8234001339A42F8D110BDFC
S315080029E04FF4004070474FF47A7070474FF4004038
S315080029F070474FF098435A6CD202FCD5586D00F4D4
S31508002A0070207047C0F30C032DE9F04105460F46C8
S31508002A1016460BB9FDF7DCFF05F5005424F4FF5400
S31508002A2024F01F0405EB0608A04507D832463946A8
S31508002A302846BDE8F0410223FDF7D8BF2046FDF73A
S31508002A40C7FF04F50054EFE770B44FF00065AD6AB0
S31508002A5003462E69864206D86C6913449C4202D303
S31508002A6070BCFFF7CFBF70BC7047036913F0FE0F49
S31508002A700CBF01200020704738B504460D46FDF707
S31508002A801DFD38B16369012B07D12046FFF7EDFF1D
S31508002A9010B1A46901202C6038BD0020FCE74FF076
S31508002AA0FF3313B5044601A80193FDF72BFE20B1A9
S31508002AB0019BA3422CBF0020012002B010BD00F0EC
S31508002AC02ABA00F075BB03461846016881F30888E0
S31508002AD081F3098840688746FEE74FF40170FDF7E1
S31508002AE04DBFB1F50D7F10B504460FD34FF40D72E7
S31508002AF0002100F07DFC04F5DE7204F5AA7104F1EC
S31508002B002C000023BDE81040FEF76EB940F2052000
S31508002B1010BD13B50446009101462C30FEF79EF908
S31508002B20C4F8300218B141F20703984204D1A378D9
S31508002B3023B1E07800F2022002B010BD40F2012075
S31508002B40FAE72DE9F04387B00DF1080904460E4669
S31508002B5017460021102248461D46DDF8388000F049
S31508002B6047FC00211C22C8F80010284600F040FC4B
S31508002B7032463B462146CDF8009004F12C00FEF77C
S31508002B806DF923789A0744BF6268C8F80020DB0706
S31508002B9009D504F1080304F1240253F8041B9342EF
S31508002BA045F8041BF9D1237840F20640002B18BFDC
S31508002BB0002007B0BDE8F0834FF40D70704700237E
S31508002BC003604FF08040704770B5D1E90152AA42C0
S31508002BD005D290F840302B449B1A402B10D9002080
S31508002BE012E00A6890F84040D65C90F8412001331C
S31508002BF0224402F03F02013486548B6080F840403C
S31508002C008B689D42EDD8012070BD2DE9F84390F8F8
S31508002C1040C017469E46D1E90123089DD21A624450
S31508002C20954204460E469DF824909DF828800AD9B8
S31508002C30FFF7CAFF002867D1132341F2020084F880
S31508002C404630BDE8F883754555D8002394F84020EA
S31508002C500AB19D4235D1D6E90121914201D29D4260
S31508002C6041D89D424DD129463846D4F88820FEF7EA
S31508002C7045FCC4F88800B9F1000F04D02A46394645
S31508002C80E06C00F054F894F84330B8F1000F06D021
S31508002C908BB12B463A463946A06C00F037F894F8C3
S31508002CA0433043B1E36DA26D2B449342E36524BFE1
S31508002CB0002384F84330636D41F203002B446365B7
S31508002CC0BFE794F84120A25CFA5494F841200133F6
S31508002CD0013202F03F0284F8412094F84020013A7C
S31508002CE084F84020B2E73268525CFA54B26801337D
S31508002CF00132B260AFE741F20100132384F846308F
S31508002D009FE741F20200F8E700209AE71FB50C4654
S31508002D10194600F14803CDE90142009300F1440247
S31508002D2000F158032030FFF78FFD04B010BD00F006
S31508002D300CB8014600F016B86822002100F058BB0E
S31508002D4003460020C3E90000704707B500F12803D1
S31508002D500190009300F108030020FEF7E3FC03B09E
S31508002D605DF804FB02460B4600F128010830FEF721
S31508002D7037BD10B500244A1EA1424FEA82024FF021
S31508002D80FF0108BF224640F8044B00F031FB2046FD
S31508002D9010BD036840F204500133012B98BF002090
S31508002DA0704740F20250704770477047FEF7B8BD4B
S31508002DB001221A70704730B504460D46A3B0D0F804
S31508002DC02C1202AA8023D0F82402FEF711FE8023D3
S31508002DD02146009502AA04F12C00FEF73FF8D4F824
S31508002DE02C32C4F830028033C4F82C3223B030BDFC
S31508002DF01FB50023CDE90033CDE90213D0F83032F0
S31508002E00044693B9D0E98A329A420ED26946FFF748
S31508002E10D2FFD4F8300270B141F2070240F2012322
S31508002E20904208BF184604B010BDA37833B1E078C5
S31508002E3000F20220F7E740F20120F4E740F2022010
S31508002E40F1E737B50C46054611462046FFF749FE19
S31508002E5048B969462846FEF7B3FD20B9019BC4F870
S31508002E602452C4F8283203B030BD38B500F5DE72F6
S31508002E7004460D46202300F5AA712C30FDF7B4FF51
S31508002E80D4F830321BB9D4E98A329A4203D3A078EF
S31508002E9000B1E07838BD29462046FFF78CFFEFE7FA
S31508002EA038B5FDF79FFE9F20FDF74AFEFDF774FE35
S31508002EB00546FDF77DFE0446FDF79EFE9D2D17D0BF
S31508002EC0C22D03D01F2D0CD0002038BD42F61403A6
S31508002ED09C4214D042F616039C420CBF0A200020DE
S31508002EE0F3E748F201439C420CBF0E200020ECE7B2
S31508002EF044F213039C420CBF17200020E5E7072085
S31508002F00E3E708B5FDF76EFE0620FDF719FEBDE8F6
S31508002F100840FDF771BE08B5FDF7B0FDFFF744FFA1
S31508002F2042F21070FDF78AFDFDF75CFEAB20FDF757
S31508002F3007FEFDF761FE47F23050FDF77FFDFFF70C
S31508002F40AFFF90B10C38C0B2012801D9002008BDE6
S31508002F50FFF7D7FFFDF746FE0120FDF7F1FD00203C
S31508002F60FDF7EEFDFDF748FEF0E740F20110EEE74B
S31508002F7010B5FDF737FE0520FDF7E2FDFDF70CFE5F
S31508002F800446FDF739FE04F0010010BD08B5FFF749
S31508002F90EFFF0028FBD108BD38B5054610460C469C
S31508002FA0FEF77AFEA04207D3A84205D32C448442F2
S31508002FB08CBF0020012038BD0020FCE738B5054647
S31508002FC00C46FFF7E3FFFFF79CFFFDF70BFE2846CD
S31508002FD0FDF7B6FD2046FDF7BFFDBDE83840FDF715
S31508002FE00BBE70B514460D46002221460646FFF76D
S31508002FF0D3FFA8B1FFF7CAFFFDF7F4FD0320FDF7DD
S315080030009FFD3046FDF7A8FD2C44A54203D1FDF7E8
S31508003010F3FD002070BDFDF7BFFD05F8010BF4E7D1
S3150800302040F20240F6E72DE9F04114460F46002229
S3150800303021460646FFF7B0FF002846D0FFF7A6FF51
S31508003040FDF7D0FD0320FDF77BFD3046FDF784FD37
S3150800305025468DB9FDF7D0FDF3B253B326F0FF052B
S3150800306005F580753319AB4232BF2546AD1BADB2A7
S315080030705CB92046BDE8F081FDF78EFDFF2805F115
S31508003080FF35E6D040F20340F4E7FFF77FFFFFF78E
S3150800309038FFFDF7A7FD0220FDF752FD3046FDF784
S315080030A05BFD07EB0508B8450AD1FDF7A5FD641BCE
S315080030B02E44B4F5807F254628BF4FF48075D7E7A0
S315080030C017F8010BFDF73CFDEDE740F20240D1E7AA
S315080030D04FF0FF307047FFF772BD00232DE9F3412B
S315080030E005460DF107008DF807300C46FEF7D4FDAE
S315080030F09DF807300646A3F10F02032A25D9133B8C
S31508003100DBB2022B4FF6FF7347F6FF7732BF4FF459
S3150800311000481F464FF4803840F6FF7344EA05021C
S315080031201A423FD1214628460DF10702FFF734FF20
S31508003130D8B30DB9A6420ED06619351B1CB13D424F
S3150800314018D144451DD2254428E04FF6FF774FF4A1
S3150800315080383B46E2E7FFF719FFFFF7D2FEFDF797
S3150800316041FDC720FDF7ECFCFDF746FD002002B047
S31508003170BDE8F08129462020FFF720FFA4F58054FA
S31508003180DBE72946D820FFF719FF4544A4EB0804D6
S31508003190D7E72020FFF712FFA4F58054291B002C3F
S315080031A0F7D1E3E740F20440E1E740F20240DEE708
S315080031B008B5FFF7EBFEFDF715FDB920FDF7C0FCD6
S315080031C0FDF71AFDFFF7F1FDFDF7AEFC002008BD7F
S315080031D0EFF3108072B6704700B962B67047436D58
S315080031E00B42FCD1704708B54368DA0714D58368E3
S315080031F0DB0702D50369D90707D50A23502183635C
S31508003200FFF7EDFF836C9A07FCD1012200F5005306
S315080032105A6043689B07FCD408BD38B50C460121A3
S31508003220024600F58053596004F00F0540F6FF7119
S31508003230FFF7D5FF78218563FFF7D1FF04F0010377
S31508003240610748BF43F00203916C01F003019942FC
S31508003250FAD138BD09B9FFF7C6BFFFF7DEBFC368A5
S3150800326013F0F04F05D1836C1906FCD5C06BC0B2BC
S315080032707047C36BC26C920601D4D8B27047836C90
S315080032801B06FCD5F2E7836C5B06FCD541647047E8
S31508003290836C5A06FCD54164836C1B06FCD5C06B4F
S315080032A080B2704770B5054614460E46FFF790FF84
S315080032B02B685C4034405C402C60BDE87040FFF7EA
S315080032C08BBF436813B9416070475B685A68012A27
S315080032D0FBD159607047836813B9816070475B6892
S315080032E05A68012AFBD159607047C369032B9FBFEF
S315080032F000EB83020133D160C3617047C369042BB5
S3150800330014D84FF09842116CC902FCD504339B00BF
S3150800331013650168103B11604168116050F8081F79
S3150800332011604FF098420344984200D1704750F814
S31508003330041F1160F8E7B0F5802F22D010D8B0F539
S31508003340003F20D007D818B3B0F5803F08BF482003
S3150800335018BF01207047B0F5403F08BF2C20F7E79B
S31508003360B0F5302F11D007D8B0F5E02F0FD0B0F553
S31508003370202F08BF1020EBE7B0F57F0F08BF062007
S31508003380E6E74B2070472A20704711207047212016
S3150800339070472422002100F02BB870B515460E465A
S315080033A024220021044600F023F825F04003802B50
S315080033B002D0B5F5807F08D12046314640F8045B37
S315080033C0EA0800F01DF8002070BD6FF01F00FBE74B
S315080033D00139024410B5904201D1002005E0037876
S315080033E011F8014FA34201D0181B10BD0130F2E7B6
S315080033F002440346934200D1704703F8011BF9E7DC
S315080034000A44431E914200D1704710B511F8014B8A
S31508003410914203F8014FF9D110BD000000000000E9
S31508003420F8B500BFF8BC08BC9E467047F8B500BFA3
S31508003430F8BC08BC9E46704700000000000000006B
S31508003440000000000000000000000000000000006E
S31508003450000000000000000000000000000000005E
S31508003460B814B6F1E0CFF3ADB7DD25C9FA79B713CD
S315080034700000000013B779FAC925DDB7ADF3CFE030
S31508003480F1B614B80102000000000000543700002D
S3150800349040000000000004020000000000000000D8
S315080034A0000000000000000000000000000000000E
S315080034B000000000000000000000000000000000FE
S315080034C00000000007B0CD5E020000000000040204
S315080034D0583700000060000800001808F0040100D2
S315080034E0BF2A0008C32A000809050008E32A0008BD
S315080034F0132B000810360008432B0008B92B0008C8
S31508003500000000005D0700085507000804000007D2
S3150800351000000D1013001A20263038405000000015
S31508003520EB17A6030201000003000000FA0606FADC
S315080035300F04000003000000F40A0AF40505000061
S3150800354001000000EB17A65E0A0600000100000055
S31508003550F50909F50307000001000000F60808F65A
S315080035600608000000000000FE0101FE0808000031
S3150800357000000000FD0303FD0C0800000000000029
S31508003580F90707F91009000002000000F30B0BF316
S31508003590110A000003000000F70A0AF7120B0000E0
S315080035A003000000FC0404FC0D0C000003000000EE
S315080035B0800000000000000000000000000000007D
S315080035C000000000000000000000000000000000ED
S315080035D000000000000000000000000000000000DD
S315080035E000000000000000000000000000000000CD
S315080035F06A09E667BB67AE853C6EF372A54FF53A76
S31508003600510E527F9B05688C1F83D9AB5BE0CD19A1
S3150800361000010000211B0008C1190008F119000863
S31508003620B91A0008FD1A0008932D0008732D000822
S31508003630A32D0008432E0008F12D0008351A0008AE
S31508003640712F0008E32F000827300008DB30000838
S31508003650D13000080000100000000400000010002F
S315080036600000040000000800000010000000100020
S31508003670000020000000200000004000000080003C
S315080036800000080000001000000008000000040008
S315080036900000080000001000000020000080000064
S315080036A000000100000002000000040000000800FD
S315080036B000000000010000000000000000001000EB
S315080036C0100203009A010000000C00000010000020
S315080036D000000800000000000100000001000000D2
S315080036E0100203009A0100000030000000100000DC
S315080036F000000800000000000100000000020000B1
S31508003700100203009A01000000E00100001000000A
S31508003710000040000000000001000000002000003A
S31508003720100203009A010000007800000010000053
S315080037300000100000000000010000000000010069
S315080037404C3700081010002002000000250200086F
S30908003750FD01000861
S503037683
S70500000000FA
