S0350000626F6F746C6F616465722D535353313032346B4D61747465724F746142726434313836763434302D6E6F726D616C2E733337FC
S315080000000810002079010008A92E00089D0800089C
S31508000010A92E0008A92E0008A92E0008A92E000856
S31508000020A92E0008A92E0008FC390008A92E0008E8
S31508000030A92E0008AC390008A92E0008A92E000828
S31508000040A92E0008A92E0008A92E0008A92E000826
S31508000050A92E0008A92E0008A92E0008A92E000816
S31508000060A92E0008A92E0008A92E0008A92E000806
S31508000070A92E0008A92E0008A92E0008A92E0008F6
S31508000080A92E0008A92E0008A92E0008A92E0008E6
S31508000090A92E0008A92E0008A92E0008A92E0008D6
S315080000A0A92E0008A92E0008A92E0008A92E0008C6
S315080000B0A92E0008A92E0008A92E0008A92E0008B6
S315080000C0A92E0008A92E0008A92E0008A92E0008A6
S315080000D0A92E0008A92E0008A92E0008A92E000896
S315080000E0A92E0008A92E0008A92E0008A92E000886
S315080000F0A92E0008A92E0008A92E0008A92E000876
S31508000100A92E0008A92E0008A92E0008A92E000865
S31508000110A92E0008A92E0008A92E0008A92E000855
S31508000120A92E0008A92E0008A92E0008A92E000845
S31508000130A92E0008A92E0008A92E0008A92E000835
S31508000140A92E0008A92E0008A92E0008A92E000825
S31508000150A92E0008A92E0008A92E0008A92E000815
S31508000160A92E0008A92E0008A92E0008A92E000805
S31508000170013800D0FCE7704708B50D4B83F30A88B1
S315080001800C4B09A1D1E90001C3E9000100F090F880
S3150800019000F0F4FB00F07EF800F056F800F068F87E
S315080001A000F088FBAFF30080A5EDF5FEA5EDF5FEA2
S315080001B008000020081000200348044B834202D0A0
S315080001C0034B03B118477047281000202810002059
S315080001D000000000064B0749C91A891048BF0131BB
S315080001E0491003D0044B0BB101481847704700BFAC
S315080001F028100020281000200000000010B5064C2A
S31508000200237843B9FFF7D8FF044B13B10448AFF37B
S3150800021000800123237010BD40100020000000005C
S31508000220A43D000808B5054B1BB105490548AFF3C1
S315080002300080BDE80840FFF7CDBF00BF0000000002
S3150800024028100020A43D0008064B0748DA1C121A9D
S31508000250C11E22F00302994288BF0022034903F017
S3150800026090BA00BF2810002010100020B03D0008EA
S31508000270064B0748DA1C121AC11E22F003029942DD
S3150800028088BF0022002103F074BA00BF4410002082
S31508000290281000200348044A0449121A921002F052
S315080002A004BE00BFC83D0008C83D00084410002031
S315080002B0044B054A9A60D3F8882042F47002C3F8C2
S315080002C08820704700ED00E000000008014B186820
S315080002D0704700BF14100020084B1B6F03F007037C
S315080002E0022B04D0032B05D0012B05D0FEE7044BC7
S315080002F018687047034BFBE70348704700800040C7
S31508000300141000201C100020002D310108B5FFF73D
S31508000310E3FF054B1B6FC3F303330133B0FBF3F065
S31508000320024B186008BD00BF008000401010002076
S31508000330014B1868704700BF1C1000200048704722
S31508000340002D31014FF094439868C0F304400C28FF
S315080003500AD8DFE800F00B09090909090721190974
S315080003601B1D1F000F487047002070479B6803F04D
S315080003704073B3F1807F11D0B3F1007F10D00A4AE1
S31508000380002B08BF10467047084870470848704752
S315080003900848704708487047084870470848704733
S315080003A008487047405DC60000093D00C0EA2101C3
S315080003B080BA8C010048E801005A62020024F40061
S315080003C080841E0040420F00014B1868704700BF2A
S315080003D018100020C0F30C032DE9F04105460F461E
S315080003E016460BB900F0A8FB05F5005424F4FF5493
S315080003F024F01F0405EB0608A04515D80D4802F0A1
S3150800040028FE304602F01BFE0B4802F022FE284664
S3150800041002F015FE00F0D0FB324639462846BDE804
S31508000420F041022300F096BB204600F085FB04F558
S315080004300054E1E7E0370008E337000870B54FF0ED
S315080004400065AD6A04462E691346864203D86D696F
S3150800045003449D4209D2074802F0FBFD204602F0FC
S31508000460EEFDBDE8704000F0A7BBBDE87040FFF7A1
S31508000470B1BF00BFE837000837B500F1006303F5E0
S31508000480004301931A4B0D469842144603D8019A25
S31508000490184B9A420AD3184802F0DBFD019802F07D
S315080004A0CEFD03B0BDE8304000F086BB019A9B1A2A
S315080004B0A3420AD2114802F0CCFD019802F0BFFD12
S315080004C00F4802F0C6FD2046E9E748B94FF0006339
S315080004D09B6A0C4A5969914202D9186900F02CFBAB
S315080004E022462946019803B0BDE83040FFF772BF9F
S315080004F0FF7FFFF700E01708EF3700081F380008EE
S3150800050043380008008000087FB56FF0006200F1EC
S3150800051078419142034619D26D460D4A02F11006FA
S315080005202C4610685168083203C4B2422546F7D1F2
S315080005305A1E04A90F3311F8014D12F8010F84420F
S3150800054004D19A42F7D1012004B070BD0020FBE720
S315080005505138000838B504460D46FFF7D5FF68B18F
S315080005606369012B04D0074800F01CFB002038BD46
S31508000570204602F0B4FC0028F8D0A46901202C60BB
S31508000580F5E700BF62380008F0B5D0E90067456BAB
S3150800059004469FB0494806F1604600F003FBB6F5ED
S315080005A0802F04D9464800F0FDFA002513E04FF0E5
S315080005B000639B6A1B69BB4202D8424A974201D92B
S315080005C04148F0E74033AB4201D8954206D93F4847
S315080005D000F0E8FA012528461FB0F0BD2846FFF7C7
S315080005E093FF002867D0284602F079FC0028DCD063
S315080005F06B690BB93648EBE7022B0DD1AB69C4F131
S31508000600040119444FF0FF32204601F0D7F8314B68
S315080006109842CAD13048DBE7304800F0C3FA40F2C6
S315080006200463656B02932846FFF76EFF0028BCD06B
S31508000630284602F054FC0028B7D04FF000677E6BBE
S315080006403046FFF761FF0028AFD0BB6A1B69503BF5
S315080006509E42AAD8284603A9FFF77CFF054600282C
S31508000660A3D0BB6A039E1B69B34204D8B44202D81E
S31508000670144B9E4201D91A4895E704A801F062F97D
S315080006802146321B04A802F0B6FD04A802F0B5FD07
S3150800069001F068F9044601F083F9234600903146D3
S315080006A006F1200204A801F0CDF80290029B002B67
S315080006B091D00C4877E70C488AE700BF6F380008E6
S315080006C080380008000018088B3800089838000899
S315080006D0AC380008E320BBDEC7380008D33800086A
S315080006E0E1380008E9380008F238000870B54FF01C
S315080006F0FF3290B005460C4601F060F81C4B984254
S3150800070032D14FF480621B4B00219A6601A81C2245
S3150800071003F02FF8184B29466846043C009302F06C
S31508000720A5FF2146684602F0A1FF684602F0A7FF2A
S3150800073002F0CCFB0646B8B940F2022000F0A8F950
S315080007401C22314609A803F014F80C4B294608A8C0
S31508000750089302F08BFF08A8214602F087FF08A835
S3150800076002F08DFF02F0B2FB002010B070BD00BF92
S31508000770E320BBDE0090004001000543010006436C
S315080007804FF4806230B50446154B91B09A66002145
S315080007901C2201A802F0EDFF124B21466846009381
S315080007A002F064FF684602F06AFF02F08FFB054616
S315080007B098B940F2022000F06BF91C22294609A8D4
S315080007C002F0D7FF084B08A82146089302F04EFF0F
S315080007D008A802F054FF02F079FB002011B030BDE2
S315080007E00090004000000243000003434FF480627B
S315080007F010B50F4B8CB004469A6600211C2205A83A
S3150800080002F0B7FF0B4B01940493012302930A4BA2
S3150800081001A904A8039302F01FFF04A802F02FFF02
S3150800082002F054FBB0FA80F040090CB010BD00BFCE
S31508000830009000400000084304000020004870476C
S315080008400080000837B50C460546E0B1D9B100234B
S315080008500B60114B036002F0FCFD013018BF2B68DA
S3150800086001A81CBF43F4C0432B604FF0FF3301932C
S3150800087002F0F2FD019B43B92B6803432B60236802
S3150800088043F40023236003B030BD012B02BF236865
S3150800089003432360F3E700BF0C12000808B50448B9
S315080008A000F080F9BDE808404FF4017000F01AB96D
S315080008B00639000813B500F085F92A4800F072F9E0
S315080008C04FF04023D3F88420110606D44FF4006273
S315080008D01A67D3F88420D206FBD402F017FB224805
S315080008E000F060F900F0C6F808B900F0ABF81F4848
S315080008F000F058F901F000FA044658B900F0BAF8C1
S3150800090008B100F0AFF840F2012000F0EBF84FF420
S3150800091001701FE000F0AEF808B900F09BF800F08F
S31508000920C3F8012809D9124800F03CF900F08AF802
S31508000930104C204600F036F9FBE700F0C1F80E4BE4
S315080009400193019B002B0ADC40F205439C42DED151
S3150800095040F2032000F0C6F8002002B010BD019B4B
S31508000960013BEDE716390008203900082939000847
S31508000970323900085339000800350C0007B500F075
S3150800098021F9012329488DF806308DF8073000F043
S3150800099009F94FF04023D3F894305A060FD500F0E2
S315080009A0B5F8A0F2022080B2072808D8C923C340A8
S315080009B0DB0742BF00238DF806308DF807301C4848
S315080009C000F0F0F81B4B5B68013308D14FF4027056
S315080009D000F05EF800238DF806308DF807309DF894
S315080009E0073073B11348FFF7CFFD8DF806009DF861
S315080009F0063033B9104800F0D5F84FF4027000F00D
S31508000A0047F89DF8063073B10C4800F0CBF800F0B3
S31508000A10D3F800F02FF808B100F024F80548084B81
S31508000A20986002F077FA03B05DF804FB773900089E
S31508000A3083390008006000088F3900089F390008CC
S31508000A4000ED00E04CF23C32014B5A80704700BF83
S31508000A50000000204AF6C032014B5A80704700BF9A
S31508000A60000000204FF20F02014B5A80704700BF6A
S31508000A70000000204AF6C030044B5B8823F00F03C1
S31508000A809BB21B1A58425841704700BF000000200D
S31508000A90044A08B51080FFF7EDFF10B94FF20F03AF
S31508000AA0538008BD0000002008B5FFF7E3FF18B122
S31508000AB0024B588800F00F0008BD00BF0000002058
S31508000AC008B5FFF7D7FF48B1054A538803F00F0169
S31508000AD00F2914BF013323F00F03538008BD00BF4D
S31508000AE00000002008B5FFF7D3FFBFF34F8F054975
S31508000AF0054BCA6802F4E0621343CB60BFF34F8F1D
S31508000B0000BFFDE700ED00E00400FA054FF20F0113
S31508000B10084B5A888A4201D1188870473AB91B8807
S31508000B2040F20220012B18BF4FF4007070474FF4B3
S31508000B3000707047000000204FF4803208B5044B5F
S31508000B409A6601F08DFFB0FA80F0400908BD00BF33
S31508000B5000900040072BF8B506460F4614461D467A
S31508000B6001D90020F8BD0121202001F055FD012101
S31508000B70212001F051FD8CB144EA06039B07F0D110
S31508000B804FF48032064B31469A66284623463A4643
S31508000B9001F08EFFB0FA80F04009E3E70120E1E7B3
S31508000BA00090004008B502F054FABDE80840014834
S31508000BB002F04FBA443A0008014802F04ABA00BFA8
S31508000BC0443A000808B54FF0806334483449436610
S31508000BD0344B5A6B22F470425A635A6B42F4804281
S31508000BE05A63D3F8442442F00102C3F844244FF46C
S31508000BF0002343662C4BD3F8FC20D20139D4D1F814
S31508000C00803023F0030343F00203C1F880304FF429
S31508000C10607001F01BFD254BB0FBF3F0224B013849
S31508000C20D3F8F02042F00102C3F8F020D3F8FC20F4
S31508000C3042F08072C3F8FC201D4AA3F55D431A6092
S31508000C40022203F57C331861C3F8F0204FF4807252
S31508000C50C3F804234FF06043164AC3F8B02F164A68
S31508000C60C3F8802ED3F8002E42F00102C3F8002EF6
S31508000C7008BDD3F8FC2022F08072C3F8FC20D1F816
S31508000C80802022F0030242F00202C1F88020D3F845
S31508000C90FC2042F08072C3F8FC20B8E700900040C0
S31508000CA00080004000C0034000ED00E08E2D0D00DE
S31508000CB0FF13014055CEACC50900010010B5044626
S31508000CC000F0E4F8074BB0FBF3F304FB03F002284B
S31508000CD006D9BDE810400323B0FBF3F0FFF748BA86
S31508000CE010BD00BF40420F004FF08062024B5A66AB
S31508000CF04FF400029A6670470090004010B5FFF75F
S31508000D00F3FF012100230422022001F03FFE022204
S31508000D1000231146104601F039FE00230422032160
S31508000D20022001F033FE0422194C11460123022049
S31508000D3001F02CFE204601F089FD164A164B0521C6
S31508000D40DA642123236140F20143A36041F20203DE
S31508000D502046636102F03FFC104A0021204601F05C
S31508000D609FFD0F4B0F4AC3F8CC244FF00212C3F86D
S31508000D70C42402F58032C3F8C8241C22C3F8B4245C
S31508000D800523A363636D13F0280FFBD110BD00BFC5
S31508000D9000000A40FF3F0D0300100A4000A861004A
S31508000DA000C003400200010008B5FFF79DFFBDE83B
S31508000DB008400021014802F00EBC00BF00000A40AE
S31508000DC008B50146FFF790FFBDE80840014802F064
S31508000DD020BC00BF00000A4038B505460D4CC0F3DC
S31508000DE007412046FFF780FF02F00EFC2046C5F3B8
S31508000DF0072102F009FCE9B2204602F005FC20466C
S31508000E0002F0EEFB204602F0EBFB2046BDE8384038
S31508000E1002F0E6BB00000A4008B5FF210348FFF7C9
S31508000E2063FF02F0F6FBC0B208BD00BF00000A402F
S31508000E3038B50B4DFF212846FFF756FF02F0E4FBB5
S31508000E40FF21284602F0E0FB284602F0C9FB04020F
S31508000E50284602F0C5FBA4B2204380B238BD00BFC5
S31508000E6000000A4008B5FFF73FFF1022014BC3F800
S31508000E70A02008BD00E0034008B5FFF735FF1022A3
S31508000E80014BC3F8A02008BD00D0034030B51C4B69
S31508000E9087B001AA03F11005144618685968083383
S31508000EA003C4AB422246F7D11B782370154B1B6F40
S31508000EB003F00703032B1FD04FF48022124B5A6608
S31508000EC0124A9368C3F30443102B17D818336B449C
S31508000ED00F4913F8143C4B430E498B4203D19268D1
S31508000EE0C2F30162D340074A106FC0F303300130E2
S31508000EF0B3FBF0F007B030BD074BF4E7074BF2E75A
S31508000F00463A00080080004000900040000001407A
S31508000F1040420F0000093D0000F04902C0EA2101E5
S31508000F2030B5024600230C25054905FB03F4601875
S31508000F300C59944203D001330C2BF6D1002030BD56
S31508000F40583A0008F0B50023082787B0CDE90133E1
S31508000F5015463B46009704AA044602F0BAF841F241
S31508000F6003039842064631D194F8433053B13A46C2
S31508000F70E06C04A902F03FF904AA3B461146A06CAE
S31508000F8002F028F9059A049B6A6094F843202B60BE
S31508000F9052B9104A934207D00F4A934204D0082206
S31508000FA0E06C04A902F027F96B680C482365002356
S31508000FB0636502F04EF8286802F041F8084802F026
S31508000FC048F8686802F03BF8FFF7F6FD304607B0C8
S31508000FD0F0BD00BFF70A0AF7FC0404FCE83A00086B
S31508000FE0EF3A00082DE9F04799465B6804460F4634
S31508000FF09046002B46D08B0706D02348FFF7D2FD34
S3150800100041F20200BDE8F0874FF000639B6A006E6C
S315080010101B6981181D1DA9421BD31C33984218D27F
S31508001020A842024638BF2A46994294BFC2EB010A33
S31508001030C2EB030A101A3E18C5F16800104431467F
S315080010405246204402F09DFB5246FF21304602F0EC
S3150800105090FB226E0D4B9A420BD80D4902EB080005
S31508001060884206D39B1AFA58C4F880204FF0FF32FC
S31508001070FA50D9E9003542463946206EA847236E0C
S31508001080434423660020BDE7F73A000804800008B9
S31508001090088000082DE9F04100254FF0FF37044687
S315080010A08846164603F0200380F842301822FF21AE
S315080010B0C0E91855A0F8405080F84350A0F84450AD
S315080010C080F84650C0F88870683002F052FB8822D3
S315080010D02946C4E91286C4F88070C4F8847004F1FD
S315080010E0900002F046FB074BC4F82071C4E9463568
S315080010F084F8245116B1304600F024FC0020BDE8DF
S31508001100F08100BF000101012DE9F04FA5B0994615
S31508001110CDE91123002304460E464FF001082E9D03
S315080011201393139978E094F846300C2B70D8062B55
S315080011304BD908FA03F212F4286F40F0138212F41E
S31508001140885F40F0BD810A2B66D1DFF8C4A3636DC2
S31508001150072B00F22B814FF0080B382316AA2046DE
S31508001160CDE90188CDF800B011A901F0B2FF41F22E
S3150800117003030A900A9A9A4200F042810A9B5BE0AE
S31508001180A3F10E02052A00F29B82DFE812F00D0396
S315080011900600F8003A023A020B030027636D0F2B8C
S315080011A000F28D80102314AA009320464023CDE92F
S315080011B0018711A901F08DFF41F203030890089AEF
S315080011C09A4200F0CE80089B36E0013B052B27D8D3
S315080011D0DFE813F0770071000600C801DF007E0122
S315080011E00127636D072B00F2E180082314AA0093F8
S315080011F020464023CDE9017711A901F06AFF41F2A3
S3150800120003030B900B9A9A4200F024810B9B13E080
S31508001210A3F10D02062AB3D9494584D3002068E014
S3150800122014AA204611A9FFF78DFE41F20302059084
S31508001230059B934208D0059B049341F20303049A45
S315080012409A423FF46EAF53E0159A1499226500222C
S315080012506265AC4A914240F00A81022284F846202F
S31508001260EAE7082314AA009320464023CDE901871C
S3150800127011A901F02EFF41F203030690069A9A423D
S3150800128001D0069BD8E7149B03F07F43B3F1407F58
S3150800129005D0132384F8463041F20903CCE7159BA1
S315080012A0D90709D594F84230974843F0010384F8E2
S315080012B04230FFF777FC0027636D072BD1D901234E
S315080012C003E1204614AA11A9FFF73CFE41F20303E5
S315080012D00790079F9F420FD0079F41F20303049789
S315080012E0049A9A423FF41DAF049B0BB10023F37096
S315080012F0049825B0BDE8F08F1498FFF711FE28B9B9
S31508001300132341F2080784F84630E6E7437994F850
S3150800131024219A4205D9132341F20E0784F8463050
S31508001320DBE7026879498A4205D00289D20748BFB5
S31508001330013384F8243194F84230D9070DD502894F
S3150800134094F84330920706D53BB1132341F20107BF
S3150800135084F84630C1E7002BF7D0037984F8463085
S31508001360BBE7D4F848A000F039FB80230221CDE979
S31508001370000315AA0123504600F038FA0EE7226D3D
S315080013800123A265002284F84330E26584F84630DA
S31508001390C7E600213C2215A81491012702F0E9F9B5
S315080013A0D4E91432934204D884F8467041F2030310
S315080013B042E7009314AA40232046CDE9017711A9F4
S315080013C001F087FE41F203030990099A9A4201D077
S315080013D0099B31E70DF1500C06F108030DF1680E73
S315080013E0624603CA724518605960944603F10803B9
S315080013F0F6D110681860337843F001033370CFE7ED
S31508001400337843F004033370179BB36273785F072E
S315080014101CD50020236DCDF850A0C4F8843094F86C
S315080014204530606643F0020384F84530EF686FB1D3
S3150800143004222B6814A9B847606E2B685A46EF68D1
S3150800144016A90830B847636E103363660B2384F811
S3150800145046307CE6337843F002033370149B73609E
S31508001460236D083B7362159BB3F1006F05D01323F8
S3150800147084F8463041F20103DEE6042384F8463058
S3150800148094F8453043F0010384F845300023636639
S31508001490A7E6042314AA009320464023CDE9017742
S315080014A011A901F016FE41F203030C900C9A9A4218
S315080014B001D00C9BC0E6226D149B042A01D9236631
S315080014C00127636D032BE4D9092384F846306DE7B9
S315080014D000236366072359E79F4253D89F4228BFD4
S315080014E01F46402314AA2046CDE90188009711A972
S315080014F001F0EFFD41F203030D900D9A9A4212D0C6
S315080015000D9B99E6EB17A603103B0008F90707F9A8
S31508001510EB17A65E402F28BF40279F4228BF1F46CD
S3150800152027F00307DDE794F846B0BBF1070F2FD085
S31508001530042FC7F1040A88BF4FF0000A14AB5246BD
S31508001540FF21D81902F015F9BBF1090FBA442DD1BC
S315080015502B465246204614A9FFF744FD0D900D9BD5
S31508001560002BCDD1D4E914739F427FF6A8AEFF1A9B
S31508001570DDE912329B1A94F84020032F1344ABD9A5
S31508001580032BC7D8204611A901F082FD002353E694
S31508001590D5F808A0BAF1000FCAD02B683A46606E93
S315080015A014A9D047636E3B446366DBE7BBF1040FBF
S315080015B01DD173789807D5D5EB68002BD2D0626E0B
S315080015C0042A0BD80AEB0203062B07D915AB9B1A7C
S315080015D01A68C4F884204FF0FF321A60EF682B6847
S315080015E05246606E14A9B847636E5344DCE7BBF1F4
S315080015F00B0FB7D173785907B4D5EF68002FEED122
S31508001600B0E74FF000618A6A496B1269503A914215
S315080016103FF630AF112B0FD194F81831002B7FF419
S315080016204EAE41F206030E930E9A9A4202D1132346
S3150800163084F846300E9BFFE594F84430002B7FF47F
S315080016403EAECDE90133402314AA0093204611A9E2
S3150800165001F03FFD41F203030E900E9A9A42E9D13A
S31508001660E06C01F0CAFD94F81831BBB104F1B4037B
S315080016700093E06C04F194031CAA14A900F0E2F8A4
S315080016800E900E9BBBB14A48FFF78CFA0023F37005
S31508001690132384F8463041F20603CDE5D4F84CA06E
S315080016A000F060F9074600F07BF93B4600901CAA5B
S315080016B0504614A9E2E70123F37084F84430FEE5A6
S315080016C000234FF00408CDE9013314AA402320462D
S315080016D0CDF8008011A901F0FCFC41F203030F903C
S315080016E00F9A9A4202D00F9B049301E6D4F88820F9
S315080016F0304B9A4205D0132384F8463041F205034D
S31508001700F2E70123F37094F84530DA0707D5EF6856
S315080017102FB1424640462B6804F18401B84794F835
S3150800172045309B0707D5EF682FB104222B68104672
S3150800173004F18401B847236E6BB36F685FB34FF04B
S31508001740FF3304F180080422414610A8109302F0E2
S3150800175000F820B1042241462B681748B84704F11F
S3150800176068090422494610A801F0F3FF98B14FF022
S3150800177000639B6A1422D3F8108004F16C0108F107
S315080017800800D5E90037B847D5E9003704224946A5
S3150800179008EB0200B8470123B3700E2384F84630DD
S315080017A00023A1E70023F37041F20700A1E500BF7B
S315080017B0143B0008E320BBDE0480000830B508248B
S315080017C0094B00255C66012403F5FE235C60014491
S315080017D09D601A61DC60884201D1586A30BD10F8F4
S315080017E0012B1A62F7E700BF009000402DE9F0418F
S315080017F016464FF480621D46114B00F12008044638
S315080018009A6640460F4601F085FFDDE90612404616
S3150800181001F084FF002384F8587063643368C4F8C1
S3150800182059307368C4F85D30B368C4F861302B0C5E
S315080018306DBA84F86530A4F86650BDE8F08100BF3B
S31508001840009000402DE9F04315464FF480621C468F
S31508001850364B99B0DDF880900E4607469A66002802
S3150800186061D000295FD0002D5DD0002C58D0304BB8
S31508001870304AB9F1000F14BF984690461C22002141
S3150800188011A801F076FF2C4B414610A8109301F0E1
S31508001890EDFE202110A801F0E9FE0122274B019454
S315080018A002920393CDF810900592069354B1B9F1BC
S315080018B0000F07D001A910A801F0C4FE04A910A8BA
S315080018C001F0C0FE079701271C4C07A910A8089726
S315080018D0099401F0B7FE0AA910A80A960B970C946A
S315080018E00D950E970F9401F0ADFE0DA910A801F005
S315080018F0A9FE10A801F0C3FE114B00934FF09843C0
S315080019005A6CD202FCD55B6D40F2046003F4702376
S315080019100093009B002B08BF002019B0BDE8F08398
S31508001920DFF81080AAE740F20160F6E70090004071
S315080019301F2400801F24FC840000010620000020CC
S31508001940785634124FF4806210B50446044B9A66F2
S3150800195001F056FC2046BDE81040002101F054BCB9
S31508001960009000404FF4806200B50B4B99B09A6620
S3150800197000212022684601F0FCFE4023002168462B
S3150800198008AA01F035F920F010000128034818BF0D
S31508001990002019B05DF804FB009000404CE31708DE
S315080019A04FF4806200B50B4B99B09A66002120224D
S315080019B0684601F0DEFE40230021684608AA01F0C9
S315080019C017F920F010000128034818BF002019B0A5
S315080019D05DF804FB009000406CE317080048704768
S315080019E086E217082DE9F3471446DDE90A920D4603
S315080019F01F4600284DD14CB313683F2B2AD851688F
S31508001A0051B32549002F14BFB846884603F03F0650
S31508001A101B19136022BF536801335360FEB93F2C6C
S31508001A200ED9A3092A46009341463B46002000F0FA
S31508001A3083F824F03F031D4404F03F0434B1002624
S31508001A402246294609EB060001F09BFE002002B05B
S31508001A50BDE8F087B846D9E7DFF83C80D6E7C6F197
S31508001A60400A5445ECD32946524609EB060001F0D4
S31508001A7088FE0123264400934A463B4641460020F9
S31508001A80A6F1400400F058F83F2C5544D6D9B8467C
S31508001A90C7E70248DBE700BF643B000880AFFFFFEB
S31508001AA02DE9F0411746146886B01E46E3008DF806
S31508001AB00F3063098DF80E30630B8DF80D30630D0A
S31508001AC08DF80C3053680546DA0002EB54728DF82F
S31508001AD00B2004F03F045A09372C8DF80A204FEAE8
S31508001AE053324FEA53538DF80920884694BFC4F100
S31508001AF03802C4F17802CDE900178DF808300D498F
S31508001B0003460020FFF76EFF08222B460020CDE98A
S31508001B1000870DEB0201FFF765FF284605F1200354
S31508001B2050F8042B984246F8042BF9D1002006B049
S31508001B30BDE8F081243B0008F0B517464FF48062F3
S31508001B401D46254B93B00E469A6604462022002170
S31508001B500AA801F00EFE01204FF0005201970290EC
S31508001B600392049605900692079508900992002C10
S31508001B702FD1189C194BA40121460AA80A9301F0F3
S31508001B8075FD039B04A91C430394069B0AA843F00E
S31508001B9020030693099B43F02003099301F052FDA5
S31508001BA001A90AA801F04EFD07A90AA801F054FDEB
S31508001BB00AA801F064FD4FF098435A6CD202FCD58E
S31508001BC05B6D13F4702F14BF6FF06F00002013B015
S31508001BD0F0BD6FF07100FAE70090004000040103C1
S31508001BE010B53A48ADF50E7D01F033FA002001F044
S31508001BF026FAFEF7E1FF4FF40D72002001A901F065
S31508001C0082FB40F20124002101A801F053FBA04207
S31508001C10F9D040F20323984207D02D48FEF7C2FFB9
S31508001C2040F205400DF50E7D10BD9DF804305807AD
S31508001C3010D50B9801F05AF960B18A9800F062F94C
S31508001C4028B12448FEF79CFD20B92348E6E7234837
S31508001C50FEF7A8FF9DF80430990710D5204801F033
S31508001C60F8F94FF000639B6A986801F0E8F91D4897
S31508001C7001F0EFF9029801F0E2F9FEF79DFF9DF8F1
S31508001C8004309A0714D54FF00062926A0299926856
S31508001C9091420DD98A9800F053F938B10A990D483E
S31508001CA0FEF724FD0028BBD10F48B7E70F48B5E774
S31508001CB0DB0701D40E48B1E704998A9800F064F965
S31508001CC008B90C48AAE70020ACE700BF843B000827
S31508001CD08B3B000800800008973B0008AE3B0008D5
S31508001CE0C43B0008CC3B0008D13B0008E93B000890
S31508001CF0FA3B0008093C000808B50348FEF752FFFE
S31508001D00BDE80840FFF76CBF1A3C000831B10A4B22
S31508001D105A68824205D80023C1E9003340F20140DF
S31508001D207047013053F8302003EBC0035B6800208E
S31508001D300A604B60704700BF143D000870B40C463B
S31508001D4011461A460D4B5D68854210D9013003EBE2
S31508001D50C0056D68A618AE420DD8A5420BD39542AC
S31508001D6009D353F83000204470BC00F0F9B940F2AA
S31508001D70014070BC704740F20240FAE7143D000883
S31508001D8070B50D46002186B00DF1070302931C4B72
S31508001D9004461646116028461C22CDE903338DF801
S31508001DA00710059301F0E5FC9DF8072032B9D4F831
S31508001DB030321BB9D4E98A31994219D32378990765
S31508001DC044BF61683160DB0709D504F1080304F1F3
S31508001DD0240153F8040B8B4245F8040BF9D162B978
S31508001DE0237840F20640002B18BF002006B070BDCD
S31508001DF0204602A901F041FAD6E70020F6E700BF1F
S31508001E007532000870B40C4611461A460D4B5D68CB
S31508001E10854210D9013003EBC0056D68A618AE429D
S31508001E200DD8A5420BD3954209D353F83000204468
S31508001E3070BC01F0BDBA40F2014070BC704740F278
S31508001E400240FAE7143D0008074B5A68824207D950
S31508001E50013003EBC002516853F8300001F0FEBAB6
S31508001E6040F20140704700BF143D000870B50546B2
S31508001E7088B0C0B14FF4403200236C46C0E9002355
S31508001E800A4B05F114061A785B680272C360684645
S31508001E9000F012F90FCC0FC694E80F0086E80F0081
S31508001EA005F114032B6108B070BD00BF143D00088E
S31508001EB038B500F5DE7204460D46202300F5AA71F2
S31508001EC02C30FFF7E7F8D4F830321BB9D4E98A3258
S31508001ED09A4203D3A37833B1E07838BD2946204621
S31508001EE001F0CBF9EFE7064801F0B3F8D4F8300271
S31508001EF001F0A5F8FEF760FEA0780028EDD0EBE724
S31508001F002C3C000800B5ADF5137D4FF40D7205A9FC
S31508001F1001F0F9F978B904238DF81530074BCDE9A6
S31508001F200100039001A905A80493FFF7C1FF0DF569
S31508001F30137D5DF804FB0020F9E700BF790400086B
S31508001F404FF0006300B59B6AADF5137D9B688B4225
S31508001F5004D300200DF5137D5DF804FB4FF40D72D4
S31508001F6005A901F0D0F90028F3D102238DF8153020
S31508001F70044BCDE90100039001A905A80493FFF7D6
S31508001F8097FFE7E77904000800B5ADF5137D4FF430
S31508001F900D7205A901F0B7F978B901238DF8153046
S31508001FA0074B0190CDE90230049001A905A8FFF777
S31508001FB07FFF0DF5137D5DF804FB0020F9E700BFF0
S31508001FC03D04000838B51948FEF7ECFDFEF74AFF50
S31508001FD09F20FEF7F5FEFEF71FFF0546FEF728FFD2
S31508001FE00446FEF749FF9D2D17D0C22D03D01F2D9D
S31508001FF00CD0002038BD42F614039C4214D042F699
S3150800200016039C420CBF0A200020F3E748F201435E
S315080020109C420CBF0E200020ECE744F213039C42BE
S315080020200CBF17200020E5E70720E3E7783C000807
S3150800203038B505460C460548FEF7B4FD2846FEF7B2
S31508002040BFFE2046BDE83840FEF7C6BE8B3C0008FA
S3150800205010B5FEF753FE01F00BF942F21070FEF7C9
S315080020602DFEFEF7FFFEAB20FEF7AAFEFEF704FFE5
S3150800207047F23050FEF722FEFFF7A4FF0446A8B148
S315080020800C3C0C48E4B2FEF78DFD012C01D900206A
S3150800209010BD01F04CF9FEF7E5FE0120FEF790FEB3
S315080020A00020FEF78DFEFEF7E7FEF0E740F201108E
S315080020B0EEE700BF9A3C000870B588B0064601F006
S315080020C04EF920220021684601F053FBFFF77AFFFC
S315080020D00E2820D00CD807280FD00A2818D0354645
S315080020E06C460FCC0FC594E80F0085E80F000CE08E
S315080020F01728F4D13446094D01E03446084D0FCD72
S315080021000FC495E80F0084E80F00304608B070BD8C
S315080021103446044DF3E73446034DF0E7243D000802
S31508002120843D0008643D0008443D000810B5044697
S3150800213001F015F954B9FFF745FF0138C0B2162862
S3150800214096BF064B002053F8200010BD20780028C3
S31508002150F3D1FFF737FF2070EFE700BFB83C000860
S3150800216070B51446064610480D46FEF71BFD0022BC
S315080021702146304601F0F9F898B101F0F0F8FEF77B
S3150800218071FE31460320FFF753FF2C44A54203D1C5
S31508002190FEF772FE002070BDFEF73EFE05F8010B45
S315080021A0F4E740F20240F6E7AA3C000838B5104BBF
S315080021B00546D3F880300C4603F00303022B0BD0F8
S315080021C0032B0DD0012B0FD1FEF786F80E2305B190
S315080021D0286004B1236038BDFEF7B4F80723F6E794
S315080021E0FEF774F80623F2E700231846EFE700BF68
S315080021F00080004038B5184B0546D3F820010C4638
S3150800220000F00700062823D8DFE800F0040A0E16B7
S31508002210121A1E00012305B1286004B1236038BDD7
S31508002220FEF754F80523F6E7FEF782F80323F2E7EC
S31508002230FEF788F80723EEE7FEF780F80223EAE7B9
S31508002240FEF744F80623E6E7FEF772F80423E2E70A
S3150800225000231846DFE700BF0080004038B5174B5B
S315080022600546D3F828310C4603F00703013B052B36
S3150800227020D8DFE803F003131B0F0B17FEF726F829
S31508002280052305B1286004B1236038BDFEF71EF8A2
S315080022900623F6E7FEF756F80723F2E7FEF748F8AF
S315080022A00323EEE7FEF744F80423EAE7FEF746F8C9
S315080022B00223E6E700231846E3E700BF0080004054
S315080022C073B50D460021114B0191D3F8804106469E
S315080022D004F00304022C13D0032C0CD0012C13D1C8
S315080022E001A8FFF787FF10240EB1019B336005B1E3
S315080022F02C6002B070BDFEF725F807240190F3E7BD
S31508002300FEF71CF80190EFE70C46EDE70080004069
S31508002310002337B50193164B0546D3F820320C46F1
S3150800232003F00703042B21D8DFE803F0030B11168B
S315080023301B0001230DB1019A2A6004B1236003B082
S3150800234030BD002101A8FFF789FF1223F2E7FDF748
S31508002350F9FF07230190EDE700F0B2FD0A2301908B
S31508002360E8E7FEF731F809230190E3E70023E1E700
S315080023700080004038B5104B0546D3F840310C466E
S3150800238003F00303022B0BD0032B0DD0012B0FD127
S3150800239000F096FD0A2305B1286004B1236038BD14
S315080023A0FEF712F80923F6E700F08DFD0C23F2E795
S315080023B001230020EFE700BF00800040002337B567
S315080023C00193164B0546D3F860320C4603F0070313
S315080023D0013B032B1FD8DFE803F0020E1914002176
S315080023E001A8FFF707FF10230DB1019A2A6004B16F
S315080023F0236003B030BD002101A8FFF7BBFF1123FE
S31508002400F2E7FDF79FFF07230190EDE7FDF796FF3B
S3150800241002230190E8E70023E6E700BF00800040BA
S31508002420002337B50193164B0546D3F894320C466C
S3150800243003F00703013B032B1FD8DFE803F0020E66
S315080024401914002101A8FFF7D5FE10230DB1019A32
S315080024502A6004B1236003B030BD002101A8FFF74C
S3150800246089FF1123F2E7FDF76DFF07230190EDE7DA
S31508002470FDF764FF02230190E8E70023E6E700BFC3
S315080024800080004038B5144B0546D3F800020C46C8
S3150800249000F0070004281BD8DFE800F003090D1137
S315080024A01500012305B1286004B1236038BD00F08A
S315080024B007FD0A23F6E7FDF787FF0923F2E700F091
S315080024C002FD0C23EEE7FDF721FF0F23800AE9E75B
S315080024D000231846E6E700BF0080004038B5144BD5
S315080024E00546D3F808020C4600F0070004281BD856
S315080024F0DFE800F003090D111500012305B1286076
S3150800250004B1236038BD00F0DBFC0A23F6E7FDF7CB
S315080025105BFF0923F2E700F0D6FC0C23EEE7FDF794
S31508002520F5FE0F23800AE9E700231846E6E700BF11
S315080025300080004038B5104B0546D3F840320C46AB
S3150800254003F00303022B0BD0032B0DD0012B0FD165
S3150800255000F0B6FC0A2305B1286004B1236038BD33
S31508002560FDF732FF0923F6E700F0ADFC0C23F2E78E
S3150800257001230020EFE700BF0080004038B5104B6C
S315080025800546D3F860310C4603F00303022B0BD043
S31508002590032B0DD0012B0FD100F092FC0A2305B1B5
S315080025A0286004B1236038BDFDF70EFF0923F6E75E
S315080025B000F089FC0C23F2E701230020EFE700BFB7
S315080025C000800040B0F5207F1FD009D8B0F5007F05
S315080025D015D003D868B1B0F5C07F0AD000200CE04A
S315080025E0B0F5607FFAD10B4BD3F88000C0F3011029
S315080025F003E0084B186FC0F3033001307047054BF2
S31508002600D3F89000C0F30460F7E7024B186FC0F3E5
S315080026108020F2E700800040430905D0012B0CD04A
S31508002620022B084B18BF002300F01F0039B103F531
S315080026308053012282401A607047034BF4E703F582
S315080026400053F6E768800040648000401FB500210B
S3150800265080280446CDE9001100F0A58035D85E280B
S3150800266046D85E2844D8DFE800F0A24343434343F4
S31508002670434343434343434343434343434343431C
S3150800268043434343434343434343A2AAA2AABABA92
S31508002690BABABAAAC44DDA714DAAAAAA43434343A1
S315080026A043434343AAAAAA79E4AA43434343434379
S315080026B043434343434343BAA2A2A2DF4D4DE988AD
S315080026C05EBF434343434399A200B0F5B06F00F0A1
S315080026D090802DD8B0F5207F71D00CD8B0F5C07F8A
S315080026E065D0B0F5007F65D0B0F5807F00F08680B4
S315080026F0009804B010BDB0F5607F6BD00DD8B0F56A
S31508002700407FF5D1FDF702FE02464FF42070FFF731
S3150800271059FFB2FBF0F252085AE0B0F5806F5ED06E
S31508002720B0F5A06FE4D100216846FFF7F1FDDFE7B9
S31508002730B0F5106F78D016D8B0F5E06F79D00AD812
S31508002740B0F5C06F6BD0B0F5D06FD1D10021684617
S31508002750FFF798FECCE7B0F5F06FC9D100216846BF
S31508002760FFF70CFFC4E7B0F5406F3DD013D8B0F5BE
S31508002770206F63D0B0F5286FBAD10021324B039190
S31508002780D3F8703203F00303012B02D103A8FFF735
S31508002790F1FD039B3CE0B0F5486FA9D100216846DE
S315080027A0FFF73EFEA4E7FDF797FD0090A0E7FDF7CB
S315080027B0ADFDFAE7FDF790FD0246204604E0FDF779
S315080027C0A5FD02464FF42070FFF7FCFEB2FBF0F2BF
S315080027D000928DE701A8FFF7E9FC019AEDE70021D1
S315080027E06846FFF707FD83E700216846FFF736FDD1
S315080027F07EE700216846FFF763FD79E74FF0E0239F
S3150800280002911B695B0705D5FDF780FD0290029BC7
S3150800281000936DE703A902A8FFF7ACFDF7E70021CF
S315080028206846FFF7A7FD63E700216846FFF756FEEF
S315080028305EE700216846FFF77DFE59E700216846F6
S31508002840FFF7BCFD54E700BF0080004010B500F05C
S315080028508BFE042300F5805100F500520B611361CD
S315080028600B6113610B6113610B611361202341F244
S31508002870020103610023C360836041614FF4A02114
S315080028808361836541620549C36103628362C362EA
S3150800289043630365D164036310BD00BFFF3F0D03A7
S315080028A070B505461446084641B9354B9D4218D0C1
S315080028B0344B9D4208BF5720FFF7C8FEAB6813F09C
S315080028C0010F6B6830D0B0FBF4F4D80704F1FF347D
S315080028D04FEA046407D42B6923F07F4323432B6113
S315080028E070BD5620E8E72821284600F039FEAB6C73
S315080028F0990715D1AB6CDA0714D4AB6C13F0020F39
S3150800290014BF06260026284600F02EFE2B693146FF
S3150800291023F07F4323432B61BDE8704000F05BBE84
S315080029200526F0E70926EEE7AB6DDB07AB6848BF7F
S31508002930640003F0E003402B1BD004D8DBB1202B46
S31508002940CED1082304E0602B17D0802BC8D10123F1
S3150800295063434101B1FBF3F20B4B203A284603EAE5
S31508002960C202012100F0FCFD2A63BDE8704000F0B8
S31508002970F7BD0623ECE71023EAE70423E8E700BFE0
S315080029800000014B00000A40F8FF7F002DE9F041E6
S3150800299005460F461E4690464AB101233022194C79
S315080029A08B4002FB004436B304F5825423600F21A2
S315080029B0072F05EB450388BFA7F108044FEA031361
S315080029C0114895BFBC00A40004330C3308FA04F27E
S315080029D0A140184400F027FEB8F1000F09D10123E1
S315080029E03021084ABB4001FB05223EB102F582525E
S315080029F01360BDE8F08104F50154D7E702F50152EA
S31508002A00F6E700BF00C0034030C00340F0B5114AE6
S31508002A10114C124E00F00105E3695F0713D40DB996
S31508002A20334213D103EA00078F4207D10B4A1A40F3
S31508002A30002A0CBF00206FF00100F0BD013AEBD16F
S31508002A406FF00200F9E74FF0FF30F6E76FF001008C
S31508002A50F3E700BF809698000000034002000100DB
S31508002A604FF4803238B50E4B0E4C9A66E56941F63E
S31508002A70713315400122E3630B4B0021DA60022310
S31508002A80606121202361FFF7C1FF10B92120FFF7FC
S31508002A90BDFF0122054BDA600DB10023E36338BDA3
S31508002AA0009000400000034000100340002003404F
S31508002AB02DE9F04F01274FF4302530268400DFF842
S31508002AC0C0C004F1402404F58024CCF80470656085
S31508002AD000244FF48035DFF8ACE0DFF8AC9006FB55
S31508002AE000E6F46534663467234CDFF8A0A0A566D3
S31508002AF041F6713504F51C34D4F81C80E563E568A5
S31508002B0007FA00F03D43E5604BB9E26818F4803FE8
S31508002B1022F00102E26029D10020BDE8F08F01F51C
S31508002B20005505EA09056D1A9D4228BF1D466161D3
S31508002B30D4F81CB0AF081BF0040F19D1013F3F01B0
S31508002B4047F060577766B266C6F86CA0CCF82400E2
S31508002B50DEF834703842FBD0084F294478630427DE
S31508002B60CCF828002A4427615B1BCDE7E363D3E74B
S31508002B704FF0FF30D1E700BF00900040002004402E
S31508002B80001004400000044000E0FFFF1800034066
S31508002B904FF48062014B00209A667047009000400F
S31508002BA04FF48062014B00209A66704700A00040EF
S31508002BB008B5B0B14FF480620B4B9A6600F05FFD22
S31508002BC04FF098435A6CD202FCD54FF48062586D88
S31508002BD0064B10F470209A6604D0BDE8084000F051
S31508002BE06BBD212008BD00BF0090004000A000403A
S31508002BF01FB5044660B35AB3402B29D1930727D192
S31508002C00042925D8DFE801F0031A24221E004FF410
S31508002C10807310490B4323600023C4E90133E36141
S31508002C200123019202930C4B204601A9039300F05D
S31508002C3013FD2046FFF7BCFF04B010BD4FF4007328
S31508002C400449E7E705494FF48063E3E70149FAE7F2
S31508002C502120F1E7010008FF40000020000008FFDE
S31508002C602DE9F041012905460E4690461F4692B0C9
S31508002C704AD8046824F04003802B02D0B4F5807F3C
S31508002C8045D11C2200210BA800F073FD234A244BD2
S31508002C900121012E08BF13460A932B1D0193E40850
S31508002CA0204B44F0005402910AA80394CDF81080F2
S31508002CB0059106930797089101A9099300F0C2FCAC
S31508002CC004A90AA800F0BEFC07A90AA800F0C4FCDB
S31508002CD029680AA8C90800F0C9FC10210AA800F04A
S31508002CE0C5FCFFF755FFA8B90AA800F0C8FC4FF0C5
S31508002CF098435A6CD202FCD55C6DFFF751FF04F479
S31508002D00702012B0BDE8F0816FF02000F9E76FF08F
S31508002D107100F6E74FF0FF30F3E700BF000100044B
S31508002D2000010104100000202DE9F04F07468946EE
S31508002D309846164699B082B115683B6823F040025A
S31508002D40802A03D0B3F5807F40F0A68000244C4546
S31508002D5005D306B1356000207BE01546EDE75DB189
S31508002D60239B229A1B5D525D01355340249A05F038
S31508002D700F0513550134EAE7A9EB040ABAF10F0F58
S31508002D800BD8239B03EB040A249B1C44239B03EBCD
S31508002D90090BDA4560D14C46D9E71C22294611A809
S31508002DA000F0E7FC3E4B3A6810933B1D0193012364
S31508002DB0D20842F00052029303923A4ACDF81080A4
S31508002DC005930692CDF81C8008930992239A2499B4
S31508002DD022442AF00F0A0A9221444AF000520B9321
S31508002DE010A80C920D9101A90E930F9200F02AFCDF
S31508002DF004A910A800F026FC0AA910A800F022FCD5
S31508002E000DA910A800F028FC07A910A800F024FCBA
S31508002E10396810A8C90800F029FC514610A800F026
S31508002E2025FCFFF7B5FE90B910A800F028FC4FF076
S31508002E3098435A6CD202FCD5586D544400F4702B52
S31508002E40FFF7AEFEBBF1000F9BD0584601E04FF0EE
S31508002E50FF3019B0BDE8F08F55B1229A1AF8013B38
S31508002E60525D0135534004F8013B05F00F0590E724
S31508002E70424601213846229BFFF7F2FE0028E8D198
S31508002E8008F1100212F8013D0133DBB21370002B72
S31508002E90E3D19045F6D1E0E76FF01F00D9E700BF10
S31508002EA00303000410000020FEE710B53AB1002322
S31508002EB050F8234041F8234001339A42F8D110BD17
S31508002EC04FF4004070474FF47A7070474FF09843BC
S31508002ED05A6CD202FCD5586D00F47020704703690D
S31508002EE013F0FE0F0CBF0120002070474FF0FF3390
S31508002EF013B5044601A80193FDF778FC20B1019BA0
S31508002F00A3422CBF0020012002B010BDFFF7A0B8D5
S31508002F1000F00FBB03461846016881F3088881F361
S31508002F20098840688746FEE7B1F50D7F10B5044667
S31508002F300FD34FF40D72002100F01BFC04F5DE726E
S31508002F4004F5AA7104F12C000023BDE81040FEF731
S31508002F50A1B840F2052010BD13B5044600910146FC
S31508002F602C30FEF7D1F8C4F8300218B141F2070345
S31508002F70984204D1A37823B1E07800F2022002B087
S31508002F8010BD40F20120FAE72DE9F04387B00DF1B4
S31508002F90080904460E4617460021102248461D46D3
S31508002FA0DDF8388000F0E5FB00211C22C8F8001087
S31508002FB0284600F0DEFB32463B462146CDF8009017
S31508002FC004F12C00FEF7A0F823789A0744BF62683C
S31508002FD0C8F80020DB0709D504F1080304F1240228
S31508002FE053F8041B934245F8041BF9D1237840F2A1
S31508002FF00640002B18BF002007B0BDE8F0834FF449
S315080030000D70704710B5044600099F2C8CBF3730E9
S31508003010303000F027F804F00F0009288CBF37304D
S315080030203030BDE8104000F01DB810B50446000A5F
S31508003030FFF7E8FFE0B2BDE81040FFF7E3BF10B5C1
S315080030400446000CFFF7F1FFA0B2BDE81040FFF7F9
S31508003050ECBF10B5441E14F8010F00B910BD00F0FE
S3150800306001F8F8E74FF06043D3F8802ED10709D569
S31508003070D3F8002ED20701D4704700BF1A68002A79
S31508003080FBD018707047002303604FF080407047EC
S3150800309070B5D1E90152AA4205D290F840302B44C6
S315080030A09B1A402B10D9002012E00A6890F840407D
S315080030B0D65C90F841200133224402F03F020134E5
S315080030C086548B6080F840408B689D42EDD801207D
S315080030D070BD2DE9F84390F840C017469E46D1E9E1
S315080030E00123089DD21A6244954204460E469DF86D
S315080030F024909DF828800AD9FFF7CAFF002867D1CF
S31508003100132341F2020084F84630BDE8F88375457A
S3150800311055D8002394F840200AB19D4235D1D6E906
S315080031200121914201D29D4241D89D424DD1294665
S315080031303846D4F88820FEF741FBC4F88800B9F170
S31508003140000F04D02A463946E06C00F054F894F88B
S315080031504330B8F1000F06D08BB12B463A463946B4
S31508003160A06C00F037F894F8433043B1E36DA26DD4
S315080031702B449342E36524BF002384F84330636DF0
S3150800318041F203002B446365BFE794F84120A25C33
S31508003190FA5494F841200133013202F03F0284F8D0
S315080031A0412094F84020013A84F84020B2E732687A
S315080031B0525CFA54B26801330132B260AFE741F2A9
S315080031C00100132384F846309FE741F20200F8E72E
S315080031D000209AE71FB50C46194600F14803CDE9C9
S315080031E00142009300F1440200F158032030FFF732
S315080031F09BFD04B010BD00F00CB8014600F016B8EF
S315080032006822002100F0B5BA03460020C3E9000091
S31508003210704707B500F128030190009300F10803F1
S315080032200020FEF7DFFB03B05DF804FB02460B4601
S3150800323000F128010830FEF733BC10B500244A1EF9
S31508003240A1424FEA82024FF0FF0108BF224640F82A
S31508003250044B00F08EFA204610BD036840F2045075
S315080032600133012B98BF0020704740F20250704787
S315080032707047704701221A70704730B504460D46EC
S31508003280A3B0D0F82C1202AA8023D0F82402FEF7A5
S3150800329055FD80232146009502AA04F12C00FDF76E
S315080032A033FFD4F82C32C4F830028033C4F82C32F9
S315080032B023B030BD1FB50023CDE90033CDE9021395
S315080032C0D0F83032044693B9D0E98A329A420ED2FF
S315080032D06946FFF7D2FFD4F8300270B141F207020F
S315080032E040F20123904208BF184604B010BDA378E7
S315080032F033B1E07800F20220F7E740F20120F4E764
S3150800330040F20220F1E737B50C460546114620463D
S31508003310FFF70AFE48B969462846FEF7F7FC20B9C2
S31508003320019BC4F82452C4F8283203B030BD08B54E
S31508003330FDF798FD0620FDF743FDBDE80840FDF7BB
S315080033409BBD10B5FDF78EFD0520FDF739FDFDF790
S3150800335063FD0446FDF790FD04F0010010BD08B5B5
S31508003360FFF7EFFF0028FBD108BD38B50546104624
S315080033700C46FEF7DBFEA04207D3A84205D32C4431
S3150800338084428CBF0020012038BD0020FCE738B5F8
S3150800339004460D46FFF7E3FFFFF7C9FFFDF762FD99
S315080033A029462046FEF744FEBDE83840FDF764BDD1
S315080033B02DE9F04114460F46002221460646FFF73E
S315080033C0D4FF002842D0FFF7CAFFFDF74BFD314670
S315080033D00320FEF72DFE25468DB9FDF74DFDF3B208
S315080033E043B326F0FF0505F580753319AB4232BFA6
S315080033F02546AD1BADB25CB92046BDE8F081FDF7A8
S315080034000BFDFF2805F1FF35E6D040F20340F4E74F
S31508003410FFF7A5FFFFF78BFFFDF724FD31460220D6
S31508003420FEF706FE07EB0508B8450AD1FDF724FDA9
S31508003430641B2E44B4F5807F254628BF4FF480755B
S31508003440D9E717F8010BFDF7BBFCEDE740F20240A0
S31508003450D3E74FF0FF307047FFF715BE00232DE97D
S31508003460F34105460DF107008DF807300C46FEF7C7
S315080034705DFE9DF807300646A3F10F02032A25D9FB
S31508003480133BDBB2022B4FF6FF7347F6FF7732BFCB
S315080034904FF400481F464FF4803840F6FF7344EA5D
S315080034A005021A423FD1214628460DF10702FFF7C9
S315080034B05CFFD8B30DB9A6420ED06619351B1CB1F0
S315080034C03D4218D144451DD2254428E04FF6FF77E2
S315080034D04FF480383B46E2E7FFF741FFFFF727FF47
S315080034E0FDF7C0FCC720FDF76BFCFDF7C5FC002007
S315080034F002B0BDE8F08129462020FFF748FFA4F571
S315080035008054DBE72946D820FFF741FF4544A4EB62
S315080035100804D7E72020FFF73AFFA4F58054291BB3
S31508003520002CF7D1E3E740F20440E1E740F202401D
S31508003530DEE708B5FFF713FFFDF794FCB920FDF7A2
S315080035403FFCFDF799FCFFF794FEFDF72DFC0020E4
S3150800355008BDEFF3108072B6704700B962B67047BF
S31508003560436D0B42FCD1704708B54368DA0714D59A
S315080035708368DB0702D50369D90707D50A235021D3
S315080035808363FFF7EDFF836C9A07FCD1012200F5F0
S3150800359000535A6043689B07FCD408BD38B50C46EF
S315080035A00121024600F58053596004F00F0540F6E4
S315080035B0FF71FFF7D5FF78218563FFF7D1FF04F088
S315080035C00103610748BF43F00203916C01F0030150
S315080035D09942FAD138BD09B9FFF7C6BFFFF7DEBF72
S315080035E0C36813F0F04F05D1836C1906FCD5C06B80
S315080035F0C0B27047C36BC26C920601D4D8B270478A
S31508003600836C1B06FCD5F2E7836C5B06FCD541642C
S315080036107047836C5A06FCD54164836C1B06FCD53F
S31508003620C06B80B2704770B5054614460E46FFF764
S3150800363090FF2B685C4034405C402C60BDE87040CD
S31508003640FFF78BBF436813B9416070475B685A68D8
S31508003650012AFBD159607047836813B981607047A6
S315080036605B685A68012AFBD159607047C369032B06
S315080036709FBF00EB83020133D160C3617047C36902
S31508003680042B14D84FF09842116CC902FCD50433A8
S315080036909B0013650168103B11604168116050F882
S315080036A0081F11604FF098420344984200D17047B2
S315080036B050F8041F1160F8E7B0F5802F22D010D813
S315080036C0B0F5003F20D007D818B3B0F5803F08BF43
S315080036D0482018BF01207047B0F5403F08BF2C208E
S315080036E0F7E7B0F5302F11D007D8B0F5E02F0FD097
S315080036F0B0F5202F08BF1020EBE7B0F57F0F08BF05
S315080037000620E6E74B2070472A20704711207047AD
S31508003710212070472422002100F02BB870B51546E9
S315080037200E4624220021044600F023F825F0400323
S31508003730802B02D0B5F5807F08D12046314640F867
S31508003740045BEA0800F01DF8002070BD6FF01F004A
S31508003750FBE70139024410B5904201D1002005E08B
S31508003760037811F8014FA34201D0181B10BD013090
S31508003770F2E702440346934200D1704703F8011B5F
S31508003780F9E70A44431E914200D1704710B511F873
S31508003790014B914203F8014FF9D110BD000000001A
S315080037A0F8B500BFF8BC08BC9E467047F8B500BF20
S315080037B0F8BC08BC9E4670470000000000000000E8
S315080037C000000000000000000000000000000000EB
S315080037D000000000000000000000000000000000DB
S315080037E046200020746F20004F4F42203078004F4B
S315080037F04F422C2061646472657373206E6F742067
S31508003800696E20616C6C6F7765642072616E67659E
S315080038103B20286164647265737329203078004FF1
S315080038204F422C206C656E67746820746F6F206C2D
S31508003830617267653B202861646472657373292029
S315080038403078002C20286C656E67746829203078DB
S3150800385000B814B6F1E0CFF3ADB7DD25C9FA79B7EC
S31508003860130057726F6E6720732074797065004174
S3150800387070706C696374696F6E56657269667900F3
S315080038805350206E2F692052414D005043206E2F11
S315080038906920666C617368004E6F2053422C206164
S315080038A07373756D652076616C6964004E6F20735D
S315080038B069676E61747572652C20617373756D65C1
S315080038C02076616C696400435243207375636365AF
S315080038D073730053656375726520626F6F74203267
S315080038E0004E6F207369676E00496E7620736967AC
S315080038F06E004E6F2041502C20617373756D6520E4
S3150800390076616C6964004661756C742020202020FD
S3150800391020202020200042544C20656E74727900C5
S3150800392062746C5F696E69740062746C5F6D61695C
S315080039306E005265736574206C6F6F7020646574D1
S3150800394065637465642E2053746F7070696E672E94
S315080039502E2E0062746C5F6D61696E20626F6F74E3
S3150800396020617070206661696C7572652C206C6FB9
S315080039706F70202E2E2E0053746172742075702E6F
S315080039802E2E00456E7465724170702E2E2E0041E3
S31508003990707020766572696679206661696C004583
S315080039A06E746572206170700000000013B779FAB2
S315080039B0C925DDB7ADF3CFE0F1B614B801020000B2
S315080039C000000000C83D000040000000000004029E
S315080039D000000000000000000000000000000000D9
S315080039E000000000000000000000000000000000C9
S315080039F000000000000000000000000007B0CD5ED7
S31508003A000200000000000402CC3D0000006000082F
S31508003A1000001808F00401000D2F0008112F0008F7
S31508003A2089050008292F0008592F0008343C00088A
S31508003A30892F0008FF2F000800000000450800082D
S31508003A403D0800080A000400000700000D101300D6
S31508003A501A20263038405000EB17A6030201000052
S31508003A6003000000FA0606FA0F040000030000002F
S31508003A70F40A0AF40505000001000000EB17A65E2B
S31508003A800A06000001000000F50909F50307000011
S31508003A9001000000F60808F606080000000000000D
S31508003AA0FE0101FE0808000000000000FD0303FDFA
S31508003AB00C08000000000000F90707F910090000CB
S31508003AC002000000F30B0BF3110A000003000000CC
S31508003AD0F70A0AF7120B000003000000FC0404FCB6
S31508003AE00D0C000003000000746167203078002088
S31508003AF06C656E203078002020556E616C69676EA3
S31508003B00656420696E7075742062756666657200F4
S31508003B10456E630047424C20766572696679206671
S31508003B2061696C00800000000000000000000000D1
S31508003B300000000000000000000000000000000077
S31508003B400000000000000000000000000000000067
S31508003B500000000000000000000000000000000057
S31508003B60000000006A09E667BB67AE853C6EF37223
S31508003B70A54FF53A510E527F9B05688C1F83D9AB2A
S31508003B805BE0CD19536C6F743A200056657269660E
S31508003B9079206661696C00534520757067726164A7
S31508003BA06520636F6D6D6974206661696C005345A5
S31508003BB0207570677261646520706172736520662E
S31508003BC061696C00424C207570672000202D3E20EC
S31508003BD00042746C207570677261646520636F6D4E
S31508003BE06D6974206661696C0042746C2075706733
S31508003BF072616465206661696C004E6F2061707041
S31508003C0020696E20736C6F74004170702075706740
S31508003C1072616465206661696C005265616C207327
S31508003C20746F726174655F6D61696E0045727220AA
S31508003C3000000000000100006D1E00080D1D0008B0
S31508003C403D1D0008051E0008491E00085B320008D5
S31508003C503B3200086B32000807330008B53200080B
S31508003C60811D00084333000861210008B1330008AC
S31508003C705D34000853340008476574206465766926
S31508003C80636520747970652E2E2E0053656E644325
S31508003C906F6D6D616E642E2E2E0053746F726167A0
S31508003CA06520496E69742E2E2E0052656164526134
S31508003CB0772E2E2E000000000000100000000400E1
S31508003CC000001000000004000000080000001000BA
S31508003CD00000100000002000000020000000400046
S31508003CE00000800000000800000010000000080026
S31508003CF0000004000000080000001000000020007A
S31508003D00008000000000010000000200000004001E
S31508003D10000008000000000001000000000000008C
S31508003D2000001000100203009A010000000C0000B9
S31508003D30001000000000080000000000010000005C
S31508003D4001000000100203009A0100000030000084
S31508003D50001000000000080000000000010000003C
S31508003D6000020000100203009A01000000E00100B2
S31508003D7000100000000040000000000001000000E4
S31508003D8000200000100203009A01000000780000DD
S31508003D9000100000000010000000000001000000F4
S31508003DA000000100B03D00081010002006000000C9
S31508003DB0C0EA2101C0EA210100800000C0175302B1
S30D08003DC025020008FD010008B8
S50303DD1C
S70500000000FA
